:020000040000FA
:10000000F0C60020010200001502000017020000E7
:10001000190200001902000019020000000000008F
:1000200000000000000000000000000019020000B5
:10003000190200000000000019020000190200006F
:100040001902000019020000190200001902000044
:100050001902000019020000190200001902000034
:100060001902000019020000190200001902000024
:100070001902000019020000190200001902000014
:100080001902000019020000190200001902000004
:1000900019020000190200001902000019020000F4
:1000A00019020000190200001902000019020000E4
:1000B00019020000190200001902000019020000D4
:1000C00019020000190200001902000019020000C4
:1000D00019020000190200001902000019020000B4
:1000E00019020000190200001902000019020000A4
:1000F0001902000019020000190200001902000094
:100100001902000019020000190200001902000083
:100110001902000019020000190200001902000073
:100120001902000019020000190200001902000063
:100130001902000019020000190200001902000053
:100140001902000019020000190200001902000043
:100150000000000000000000190200001902000069
:10016000190200001902000000000000190200003E
:100170001902000019020000190200001902000013
:100180001902000019020000190200001902000003
:1001900019020000190200001902000019020000F3
:1001A00019020000190200001902000019020000E3
:1001B00019020000190200001902000019020000D3
:1001C00019020000190200001902000019020000C3
:1001D00019020000190200001902000019020000B3
:1001E00019020000190200001902000019020000A3
:1001F0001902000019020000190200001902000093
:100200004EF68850CEF20000016841F470010160A2
:1002100000F004B8FEE7FEE7FEE70000DFF810D0CC
:1002200000F08CF800480047E5050000AFF30080BF
:10023000F0C600202C4B19680868B0E8F04F80F336
:100240000988BFF36F8F4FF0000080F3118870476B
:100250000000000008480068006880F308884FF03C
:10026000000080F3148862B661B6BFF34F8FBFF30E
:100270006F8F00DF00BF00BF08ED00E0DFF80C006B
:10028000016841F470010160704700BF88ED00E033
:10029000EFF30980BFF36F8F134B1A681EF0100F36
:1002A00008BF20ED108A20E9F04F106009B44FF02C
:1002B000A00080F31188BFF34F8FBFF36F8F00F062
:1002C00063FF4FF0000080F3118809BC19680868CB
:1002D000B0E8F04F1EF0100F08BFB0EC108A80F3AA
:1002E0000988BFF36F8F704714000020EFF305807B
:1002F000704740EA01039B0703D009E008C9121FB9
:1003000008C0042AFAD203E011F8013B00F8013BCF
:10031000521EF9D27047D2B201E000F8012B491EFB
:10032000FBD270470022F6E710B513460A46044692
:100330001946FFF7F0FF204610BD0000064C074DA0
:1003400006E0E06840F0010394E8070098471034A5
:10035000AC42F6D3FFF766FF2819000048190000E9
:10036000D0F8003412F0010F14BF0B438B43C0F8D8
:10037000003412F0020FD0F8202414BF114322EAF7
:100380000101C0F8201470472DE9F04F574ED6F800
:1003900000C0574FDFF85C810CEA070CC44524D03D
:1003A0004FF0000C4FF001094FF0030AC2F3411562
:1003B00009FA0CF40C4211D0D0F8C4BF4FEA4C0437
:1003C0000AFA04FE2BEA0E0BC0F8C4BFD0F8C4BF73
:1003D00005FA04F44BEA0404C0F8C44F0CF1010C14
:1003E0000CF0FF0CBCF1080FE2D3D0F800C512F0FE
:1003F000010F14BF4CEA010C2CEA010CC0F800C537
:10040000D0F804C512F0020F14BF4CEA010C2CEA1C
:10041000010CC0F804C5D0F808C512F0040F14BFD1
:100420004CEA010C2CEA010CC0F808C5D0F818C53C
:1004300012F0080F14BF4CEA010C2CEA010CC0F8B2
:1004400018C5D6F800C00CEA070CC44508D012F055
:10045000100FD0F83C250CBF8A430A43C0F83C2556
:10046000D0F80C2513F0010F14BF0A438A43C0F8DB
:100470000C25D0F8102513F0020F14BF0A438A434D
:10048000C0F81025D0F8142513F0040F14BF0A4348
:100490008A43C0F81425D0F81C2513F0080F14BFA8
:1004A0000A438A43C0F81C2532683A40424511D0BD
:1004B000D0F8442513F4007F0CBF8A430A43C0F8E8
:1004C0004425D0F8402513F4407F14BF0A438A43E3
:1004D000C0F84025D0F82825002B0CBF114322EA94
:1004E0000101C0F82815BDE8F08F000000E00F40C2
:1004F0000000FF700000051030B50C4605460823CB
:100500000122FFF741FF21462846BDE83040012285
:10051000FFF726BF40F821207047000010B50748BC
:1005200000F010F800BF054800F020F80028FAD0CD
:1005300001210348FFF7E0FF10BD00000C0800F0A8
:1005400000400640C0F307230749C0B2194401F038
:100550007043C1F3130143EA411141EA800040F0C6
:10056000007001220260704700E60F40C0F30722CE
:100570000849C0B2114401F07042C1F3130142EACC
:10058000411141EA800040F000700068002818BF67
:100590000120704700EA0F40826912F0200FFBD162
:1005A0000160704770B504460D4604E014F8011B65
:1005B0000348FFF7F1FF281EA5F10105F6D170BD34
:1005C00000C0004002E008C8121F08C1002AFAD18A
:1005D00070477047002001E001C1121F002AFBD1C3
:1005E000704700001CB5FFF799FF11480121002357
:1005F000C822CDE900100FA1114800F041FF0446C8
:100600002CB90B210FA0FFF7CDFF00BFFEE700F0D4
:1006100077FD0BE0002585F0010201210C48FFF772
:1006200079FF40F24D1000F009FD00BFF2E7000035
:100630000800002076426C696E6B5461736B000099
:10064000C50E00005461736B2031206661696C0037
:10065000004006402DE9F04105460E462648076851
:1006600026480068001D00F019FC50B923480068B6
:1006700090F82C10012088402149096881432048C6
:100680000160681CD8B9D6B11E4948681B49096881
:1006900088601A4982680968CA6018490968091D92
:1006A0008268516015490968091D8160154A13491E
:1006B00009684A6111460968491C11601AE07C19F1
:1006C0000E4800684460BC4207D20C480168091D0E
:1006D0000D48006800F016FC0CE008480168091D90
:1006E0000A48006800F00EFC09480068844201D204
:1006F00007480460BDE8F0812800002014000020B5
:100700002C000020B0C400201C0000201800002095
:100710004400002010B5044600F00EFC314800688B
:10072000401C304908603048006840B92E480460D9
:100730000846006801280DD100F056F90AE02B4860
:10074000006838B928480068C06AE16A884201D860
:100750002548046026480068401C25490860084672
:100760000068206494F82C10012088402149096811
:10077000084320490860E16A01EB81011E4A02EB4F
:1007800081014868A0608268E260211D8268516032
:100790008160E16A01EB8101174A02EB810262612B
:1007A000E16A01EB8101144A52F82110491CE26A06
:1007B00002EB8202104B43F8221000F0CFFB0B48F3
:1007C000006868B108480068C06AE16A884207D2D8
:1007D0004FF0805009490860BFF34F8FBFF36F8F10
:1007E00010BD000024000020140000203000002074
:1007F000400000202C000020FCC3002004ED00E09D
:1008000010B500F099FB10480068D0B90F4800F00F
:1008100069FB0F4800F066FB0C480E4908600C4865
:100820000D49086000220C21052000F001FD064959
:1008300008600846006820B108A10348006800F07D
:10084000B3FB00F08BFB10BD5C000020C4C4002093
:10085000D8C400205400002058000020546D72516C
:100860000000000010B516E000F066FB0C48C06800
:10087000C468201D00F012FB0A480068401E0949A8
:10088000086009480068401E0749086000F066FBE0
:10089000204600F020F8044800680028E4D110BD8C
:1008A0009CC40020240000202000002070B50446D5
:1008B0000D46206C70B1216CE0680144E160D4E920
:1008C0000210884201D32168E1602846226CE16869
:1008D000FFF70FFD70BD10B50446206B00F04EFB16
:1008E000204600F04BFB10BD0146084A1268126812
:1008F0000AB9012200E000220A600A6822B9034A0C
:100900001268D268106800E0002070475400002090
:1009100000BFFFF7A7FF064800680128F9D94FF08C
:10092000805004490860BFF34F8FBFF36F8FF0E72B
:10093000FCC3002004ED00E02DE9F04106460D4621
:1009400017469846069C0DB9246000E02760E663D0
:1009500025640121204600F091FC84F84C80BDE81C
:10096000F0812DE9F05F81460E4690469A460A9F37
:100970000C9C4FEA8801A522206BFFF7CCFCA8F164
:100980000100216B01EB800B2BF0070B7EB10025E2
:1009900007E0715D04F134004155705D00B902E07B
:1009A0006D1C0A2DF5D300BF00213D200155052FF8
:1009B00000D30427E762A764201D00F0A0FA04F129
:1009C000180000F09CFA2461C7F10500A061646280
:1009D00052464946584600F04BFA20600B9808B141
:1009E0000B980460BDE8F09F10B5002407E004EB0D
:1009F00084010F4A02EB810000F074FA641C052C9C
:100A0000F5D30C4800F06EFA0B4800F06BFA0B4877
:100A100000F068FA0A4800F065FA0A4800F062FA45
:100A200004480949086004480849086010BD0000EE
:100A3000FCC3002060C4002074C4002088C40020CF
:100A40009CC40020B0C40020180000201C0000201E
:100A50002DE9F04104460D4616461F464FF00008AA
:100A600065602461B5420CD8F01BA169884202D3AD
:100A70004FF0010811E0211D0948006800F042FA1A
:100A80000BE0BE4204D2BD4202D34FF0010804E0A5
:100A9000211D0448006800F035FA4046BDE8F081A9
:100AA000580000205400002070B5054600F044FABC
:100AB000A86B08B9012400E0002400F04FFA20469A
:100AC00070BD000070B505460E460E480068C0684F
:100AD000C468201D00F0E2F994F8280000F004003A
:100AE00028B132462946204600F0C4F805E094F8C3
:100AF000280000F0FE0084F828002046216A88477C
:100B000070BD0000540000207FB56EE00198002801
:100B10006BDB039C606908B9012000E0002010B97C
:100B2000201D00F0BBF9684600F0D0F8054601989A
:100B30000A2858D2DFE800F05705072E3647060886
:100B40002F3700BF00BF00BF94F8280040F001001D
:100B500084F828000298A269811803462A46204694
:100B6000FFF776FFA8B194F8280000F0040038B130
:100B70000298A26981182A46204600F07BF805E019
:100B800094F8280000F0FE0084F828002046216A2E
:100B9000884729E000BF94F8280000F0FE0084F8A0
:100BA000280021E000BF94F8280040F0010084F8FC
:100BB00028000298A061A06941192B462A462046C8
:100BC000FFF746FF10E094F8280000F0020018B983
:100BD000204600F0D3F905E094F8280000F0FE006C
:100BE00084F8280000E000BF00BF002201A90348EC
:100BF000006800F093FB002888D17FBD5C000020D6
:100C0000F8B505460C4600F0B7FA684600F05EF805
:100C10000646009820BB44B9B54206D800F0B6FDA0
:100C200031462846FFF74EFF1CE03CB10E480068F5
:100C3000006808B9012000E000200446A91B2246F4
:100C40000A48006800F0D4F900F0A0FD50B94FF058
:100C5000805007490860BFF34F8FBFF36F8F01E0EB
:100C600000F094FDF8BD0000580000205C0000205A
:100C700004ED00E070B504460D46164604E0A06998
:100C800005442046216A8847A06941192B4632460F
:100C90002046FFF7DDFE0028F1D170BD094800684D
:100CA000006808B9012000E0002020B14FF0FF30BB
:100CB0000549086005E003480068C068006802490B
:100CC00008607047180000204400002070B50446FA
:100CD00000F00AFC054607480068854204D200F08F
:100CE0000BF80120206001E0002020600148056031
:100CF000284670BD6400002070B508E00D4800680B
:100D0000C06804684FF0FF312046FFF7DBFE09485A
:100D10000068006808B9012000E000200028EDD03C
:100D200004480568044800680249086002480560F4
:100D300070BD0000540000205800002000BFA0201B
:100D400080F31188BFF34F8FBFF36F8F00BF00BFD9
:100D5000FEE708B500BF6846FFF7C6FD044620461B
:100D60000099FFF74DFFFFF7CFFEF4E770B504469B
:100D700000F0E2F894F9455010E0606A08B90120EB
:100D800000E0002038B904F1240000F07BFC18B129
:100D900000F07AF900E003E0681E45B2002DECDCBB
:100DA00000BFFF2084F8450000F0D8F800F0C4F838
:100DB00094F9445010E0206908B9012000E00020B7
:100DC00048B904F1100000F05DFC08B100F05CF9D6
:100DD000681E45B200E001E0002DECDC00BFFF2002
:100DE00084F8440000F0BAF870BD000070B5044605
:100DF000002504F0070068B104F00700C0F1080006
:100E00002044A04205D904F00700C0F108000444C2
:100E100000E0002400F0B0F91248006820B9124840
:100E200020F007000F490860BCB11048006820445A
:100E30004CF24831884210D20C48006820440B49DB
:100E40000968884209D907480068084909684518AF
:100E50000648006820440549086000F097FC2846D1
:100E600070BD000010000020730000200C00002066
:100E7000001F4FF080730360001F21F00103036027
:100E8000001F054B036014380260001F6FF002035F
:100E900003602038704700003D0D000001460A69DC
:100EA000D1E901309860D1E9010358605068884267
:100EB00001D188685060002008611068401E1060F1
:100EC00010687047002409E084F001020121044801
:100ED000FFF720FB4FF4FA6000F0B0F8F4E70000F1
:100EE0000040064000F1080141604FF0FF31816091
:100EF00000F10801C160016100210160704700211B
:100F00000161704710B502460B685C1C0CB9106992
:100F100007E002F1080000E04068446824689C4251
:100F2000FAD944684C604C68A160886041600A61ED
:100F30001468641C146010BD00BFA02080F31188E9
:100F4000BFF34F8FBFF36F8F00BF03480068401C93
:100F500001490860704700006800002006480068EA
:100F6000401E054908600846006820B9002080F34B
:100F7000118800BF00BF7047680000207047000064
:100F800000204FF0E02108618861064800684FF4B6
:100F90007A71B0FBF1F0401E4FF0E021486107206C
:100FA000086170470400002010B502460B4600217E
:100FB000BBB1002012E00D4C04EBC0046468944205
:100FC00003D10A4C04EBC0010AE031B9074C54F8D4
:100FD000304014B9054C04EBC001401C0828EAD38A
:100FE00000BF09B10B604A6010BD0000BCC3002007
:100FF0002DE9F04105460E4617462C46FFF79CFFAB
:1010000094F94400401C10B9002084F8440094F97D
:101010004500401C10B9002084F84500FFF79EFFF2
:10102000A06B28B93A46314604F1240000F042F89A
:101030002046FFF79BFEBDE8F081000070B5044636
:10104000002544B100F098F800212046FFF702FB8C
:1010500000F09CFB05463DB94FF080500349086005
:10106000BFF34F8FBFF36F8F70BD000004ED00E042
:10107000034909680160034909684160704700003D
:101080003C00002028000020012001490860704732
:101090003800002070B505460C4605480168183137
:1010A0002846FFF72FFF01212046FFF7D3FA70BD36
:1010B0001400002070B504460E46154660680F49BE
:1010C0000968C8610D49826809680A620B490968A4
:1010D00018318268516009490968183181600749EF
:1010E00009688C622168491C21600DB14FF0FF3600
:1010F00029463046FFF7AEFA70BD0000140000200C
:101100001CB5154800210B46C822CDE9001013A1DB
:10111000144800F0B5F90446012C02D100F0E4FBBC
:101120000446012C14D100BFA02080F31188BFF326
:101130004F8FBFF36F8F00BF4FF0FF300A49086039
:1011400001200A49086000200949086000F04CF8B5
:10115000084800681CBD00004800002049444C4578
:1011600000000000110900004400002030000020B1
:10117000280000204C00002002480068401C014963
:1011800008607047500000201248006818B1012024
:10119000114908601DE000200F4908600F480068F1
:1011A000B0FA80F0C0F11F0101EB81020C4B03EBA0
:1011B000820042685268426000F10802436893422C
:1011C00002D14268526842604268D268054B1A6098
:1011D00000BF704750000020380000202C00002085
:1011E000FCC300201400002010B50E48006840F435
:1011F00060000C4908600846006840F060400860E4
:10120000FFF7BEFE002008490860FFF737F80748DF
:10121000006840F0404005490860FFF71BF80020D7
:1012200010BD000020ED00E06800002034EF00E079
:101230002DE9F84304460E4617460025DCB1681E2A
:10124000B0FBF4F0B04216D304FB06F010F1510FDE
:1012500011D804FB06F909F15000FFF7C7FD054658
:101260004DB1A84608F150083B464246314620465B
:101270000095FFF761FB2846BDE8F8832DE9F041B2
:1012800005460E4601272C46002C41D0E06B002875
:101290003ED0B91EE06BB1FBF0F0216C884237D331
:1012A000FFF74AFED4E90F12206801FB0200A0609C
:1012B0000020A06320686060E06B401E226C216803
:1012C00000FB0211E160FF2084F8440084F845002F
:1012D0009EB9206908B9012000E00020A8B904F1F6
:1012E000100000F0CFF980B14FF080500A4908603B
:1012F000BFF34F8FBFF36F8F07E004F11000FFF7CC
:10130000F1FD04F12400FFF7EDFDFFF727FE00E0FB
:1013100000273846BDE8F08104ED00E02DE9F741F3
:1013200083B005460F464FF000082C4600BFFFF77C
:1013300003FEA66BF6B139462046FFF7B7FA701EDA
:10134000A063206908B9012000E0002060B904F121
:10135000100000F097F938B14FF080502F49086025
:10136000BFF34F8FBFF36F8FFFF7F8FD012006B07B
:10137000BDE8F081059818B9FFF7F0FD0020F6E709
:10138000B8F1000F04D101A8FFF772FE4FF0010879
:10139000FFF7E4FDFFF7F0FEFFF7CEFD94F9440000
:1013A000401C10B9002084F8440094F94500401C0A
:1013B00010B9002084F84500FFF7D0FD05A901A869
:1013C00000F02EF8F0B92046FFF76EFBA0B104F153
:1013D00024000599FFF75EFE2046FFF7C7FC00F0EA
:1013E000D5F90028A3D14FF080500C490860BFF315
:1013F0004F8FBFF36F8F9AE72046FFF7B7FC00F0DF
:10140000C5F994E72046FFF7B1FC00F0BFF920468C
:10141000FFF74AFB00288AD00020A8E704ED00E08F
:1014200070B506460C46FFF787FD134802687068E2
:10143000131A2068401C08B9002519E00F493068CC
:101440000968884206D07068904203D801250020C0
:1014500020600DE02068984207D92068C01A2060FB
:101460003046FFF705FE002502E000202060012540
:10147000FFF774FD284670BD280000203C000020C6
:101480002DE9FF4F85B0804689461746DDE912AB4E
:10149000B800FFF7ABFC064676B15820FFF7A6FC74
:1014A00004462CB158212046FEF73CFF266304E099
:1014B0003046FFF763FD00E000247CB10020CDE959
:1014C00000ABCDE902403A4649464046089BFFF74B
:1014D00048FA2046FFF71EF9012501E04FF0FF35DD
:1014E000284609B0BDE8F08F014908687047000040
:1014F000280000202DE9F041002757480068002807
:101500007ED156480068451C544805608DB9544842
:10151000D0F8008053480068514908605148C0F82D
:10152000008051480068401C4F490860FFF7B6FB37
:1015300000BF4E480068854276D300BF4848006827
:10154000006808B9012000E0002020B14FF0FF3012
:101550004649086067E042480068C068C468666839
:10156000B54202D2414806605DE06069D4E90212EA
:101570008A60D4E902214A60211D42688A4201D171
:10158000E1684160002262610168491E0160A06A51
:1015900098B1A06AD4E907128A60D4E907214A60A9
:1015A00004F1180142688A4201D1216A4160002297
:1015B000A2620168491E016000BF94F82C1001204E
:1015C00088402B490968084329490860E16A01EB12
:1015D0008101284A02EB81014868A0608268E260CC
:1015E000211D826851608160E16A01EB8101214A1D
:1015F00002EB81026261E16A01EB81011D4A00E0B8
:1016000022E052F82110491CE26A02EB8202194BD7
:1016100043F822101849E06A0968C96A88428DD9DE
:1016200001278BE700E000BF13480068C06A00EBA9
:101630008000104951F82000012800D901270F48E7
:10164000006800B1012704E00D480068401C0C4907
:1016500008603846BDE8F0815000002028000020D6
:10166000180000201C0000203C0000204400002046
:101670002C000020FCC300201400002038000020B3
:101680003400002070B50346D868C168886AD1E983
:101690000745A560D1E90754656001F11804456864
:1016A000A54201D10C6A446000258D620468641E65
:1016B00004603048006800283DD14869D1E90245FE
:1016C000A560D1E9025465600C1D4568A54201D1B1
:1016D000CC68446000254D610468641E046091F884
:1016E0002C400120A040244C24682043224C206040
:1016F000CC6A04EB8404214D05EB840460688860A7
:101700008568CD600C1D85686C608460CC6A04EBD4
:1017100084041A4D05EB84054D61CC6A04EB840406
:10172000164D55F82440641CCD6A05EB8505134E13
:1017300046F8254010E0124C6068C86185680D626B
:1017400001F1180485686C6084600D4D8D622C4633
:101750002468641C2C6000BF0A4CC86A2468E46AD0
:10176000A04204D901220120074C206000E00022A1
:10177000104670BD500000202C000020FCC300204B
:1017800088C40020140000203800002070B5002418
:101790000026FFF7D1FB4B480068401E494908600E
:1017A0000846006800287DD147480068002879D0A5
:1017B0005BE04648C068C468A06AD4E907128A6042
:1017C000D4E907214A6004F1180142688A4201D134
:1017D000216A41600022A2620168491E01606069BD
:1017E000D4E902128A60D4E902214A60211D4268CC
:1017F0008A4201D1E1684160002262610168491EAC
:10180000016094F82C100120884031490968084390
:101810002F490860E16A01EB81012E4A02EB810148
:101820004868A0608268E260211D82685160816022
:10183000E16A01EB8101274A02EB81026261E16A00
:1018400001EB8101234A52F82110491CE26A02EBA4
:101850008202204B43F822101F49E06A0968C96AD6
:10186000884202D301201D4908601848006808B961
:10187000012000E0002000289BD00CB1FFF70EFAF9
:101880001748056865B100BFFFF734FE10B10120AD
:10189000124908606D1E002DF6D100201049086025
:1018A0000E4800E009E0006838B1012630070D4914
:1018B0000860BFF34F8FBFF36F8FFFF74FFB3046CA
:1018C00070BD0000500000202400002088C40020CB
:1018D0002C000020FCC30020140000203800002051
:1018E0003400002004ED00E01CB50024FEF788FF62
:1018F0000848006858B10848042100234FF4C87212
:10190000CDE9001005A10748FFF7BAFD04462046BF
:101910001CBD00005C00002060000020546D72209F
:1019200053766300530D00004819000000000020AA
:101930006C000000C4050000B41900006C00002019
:1019400084C60000D405000000000000000E270738
:101950000000000000000000000000000000000087
:101960000000000000000000000000000000000077
:101970000000000000000000000000000000000067
:101980000000000000000000000000000000000057
:101990000000000004000000000000000000000043
:1019A0000000000000000000000000000000000037
:0419B000AAAAAAAA8B
:0400000500000201F4
:00000001FF
