:020000040000FA
:10000000700C002001020000150200001702000021
:10001000190200001902000019020000000000008F
:1000200000000000000000000000000019020000B5
:10003000190200000000000019020000190200006F
:100040001902000019020000190200001902000044
:100050001902000019020000190200001902000034
:100060001902000019020000190200001902000024
:100070001902000019020000190200001902000014
:100080001902000019020000190200001902000004
:1000900019020000190200001902000019020000F4
:1000A00019020000190200001902000019020000E4
:1000B00019020000190200001902000019020000D4
:1000C00019020000190200001902000019020000C4
:1000D00019020000190200001902000019020000B4
:1000E00019020000190200001902000019020000A4
:1000F0001902000019020000190200001902000094
:100100001902000019020000190200001902000083
:100110001902000019020000190200001902000073
:100120001902000019020000190200001902000063
:100130001902000019020000190200001902000053
:100140001902000019020000190200001902000043
:100150000000000000000000190200001902000069
:10016000190200001902000000000000190200003E
:100170001902000019020000190200001902000013
:100180001902000019020000190200001902000003
:1001900019020000190200001902000019020000F3
:1001A00019020000190200001902000019020000E3
:1001B00019020000190200001902000019020000D3
:1001C00019020000190200001902000019020000C3
:1001D00019020000190200001902000019020000B3
:1001E00019020000190200001902000019020000A3
:1001F0001902000019020000190200001902000093
:100200004EF68850CEF20000016841F470010160A2
:1002100000F004B8FEE7FEE7FEE70000DFF810D0CC
:1002200000F008F800480047E91A0000AFF300802A
:10023000700C0020064C074D06E0E06840F001031A
:1002400094E8070098471034AC42F6D3FFF7EAFF72
:10025000F02B0000102C000030B58C1810F8012B8A
:1002600012F00F0301D110F8013B120906D110F86A
:10027000012B03E010F8015B01F8015B5B1EF9D173
:1002800001E001F8013B521EFBD1A142E6D3002060
:1002900030BD000070B504460D46012D13D124B9C0
:1002A000042113A001F0B6FA20E0012C04D10421AE
:1002B00011A001F0AFFA19E0022C17D1042110A00F
:1002C00001F0A8FA12E024B904210FA001F0A2FA6B
:1002D0000CE0012C04D104210DA001F09BFA05E0F3
:1002E000022C03D104210CA001F094FA70BD00008F
:1002F0004052303100000000405231310000000017
:100300004052323100000000405230300000000006
:1003100040523130000000004052323000000000F6
:1003200038B50446402000902078012804D19DF87B
:1003300000000830C0B200906078012804D19DF818
:100340000000001DC0B20090A078012804D19DF8E3
:100350000000801CC0B20090032104A001F05AFAF2
:100360000121684601F056FA38BD000040545300A0
:1003700010B50446012C06D0022C0AD0032C0ED056
:10038000042C18D111E0E022F0210F4800F063F9AD
:1003900017E0D022F0210C4800F05DF911E0B02206
:1003A000F021094800F057F90BE07022F0210648CF
:1003B00000F051F905E0F0221146034800F04BF936
:1003C00000BF00BF10BD000000300640D0F8003470
:1003D00012F0010F14BF0B438B43C0F8003412F02E
:1003E000020FD0F8202414BF114322EA0101C0F803
:1003F000201470472DE9F04F574ED6F800C0574FE4
:10040000DFF85C810CEA070CC44524D04FF0000CE7
:100410004FF001094FF0030AC2F3411509FA0CF439
:100420000C4211D0D0F8C4BF4FEA4C040AFA04FEC3
:100430002BEA0E0BC0F8C4BFD0F8C4BF05FA04F411
:100440004BEA0404C0F8C44F0CF1010C0CF0FF0C93
:10045000BCF1080FE2D3D0F800C512F0010F14BFB1
:100460004CEA010C2CEA010CC0F800C5D0F804C518
:1004700012F0020F14BF4CEA010C2CEA010CC0F878
:1004800004C5D0F808C512F0040F14BF4CEA010CE3
:100490002CEA010CC0F808C5D0F818C512F0080FF6
:1004A00014BF4CEA010C2CEA010CC0F818C5D6F8B0
:1004B00000C00CEA070CC44508D012F0100FD0F8A9
:1004C0003C250CBF8A430A43C0F83C25D0F80C25D4
:1004D00013F0010F14BF0A438A43C0F80C25D0F86B
:1004E000102513F0020F14BF0A438A43C0F81025E9
:1004F000D0F8142513F0040F14BF0A438A43C0F840
:100500001425D0F81C2513F0080F14BF0A438A43A2
:10051000C0F81C2532683A40424511D0D0F8442535
:1005200013F4007F0CBF8A430A43C0F84425D0F877
:10053000402513F4407F14BF0A438A43C0F8402586
:10054000D0F82825002B0CBF114322EA0101C0F886
:100550002815BDE8F08F000000E00F400000FF709C
:10056000000005100E4AC0F30741D26E01238B40F4
:100570001A420C4A1ABF02EBC101496852F8311005
:10058000020AD1F82C354FF00F0C0CFA02FC00F0E7
:100590000F0023EA0C0390401843C1F82C05704764
:1005A00000E00F408027000050F82100704730B570
:1005B0000C4605460022FFF709FF21462846BDE804
:1005C000304008230122FFF715BF30B50C46054621
:1005D00008230122FFF70EFF21462846BDE83040E0
:1005E0000122FFF7F3BE30B50C4605460222FFF7A5
:1005F000EDFE21462846BDE8304009230122FFF7E1
:10060000F9BE30B50C4605460222FFF7DFFE214653
:100610002846BDE8304008230122FFF7EBBE30B585
:100620000C4605460222FFF7D1FE21462846BDE8CA
:10063000304008230122FFF7DDBE30B50C460546E9
:100640000222FFF7C3FE21462846BDE830400823BA
:100650000122FFF7CFBE40F82120704738B504468D
:1006600000F06AFD2078012808D1182003461D4AB1
:10067000192100900F2000F0B9FC07E01820034674
:10068000194A192100900F2000F0B0FC6078012871
:1006900008D118200346134A19210090362000F093
:1006A000A5FC07E0182003460F4A192100903620C8
:1006B00000F09CFCA078012808D118200346094AC4
:1006C000192100905B2000F091FC07E01820034600
:1006D000054A192100905B2000F088FC00F00AFD1B
:1006E00038BD000010220000C821000010B51448D9
:1006F00000F09EFF134800F09BFF00BF104800F081
:10070000ABFF0028FAD00F4800F0A6FF0028F5D074
:100710000D48FFF727FF0D48FFF724FF04210C4881
:10072000FFF76FFF08210A48FFF75DFF00F0D6FED4
:10073000044600222146074800F0CEF810BD000014
:10074000002000F0010800F002080100020C010086
:1007500000500040000002402DE9F04107460E46DF
:100760001446002239461B4800F0E0F82178194869
:1007700000F0B0F80321174800F0AAF800BF1548B0
:1007800000F0A0F80028FAD101250FE0615D1148C2
:1007900000F0A0F801210F4800F09AF800BF0D48C2
:1007A00000F090F80028FAD1681CC5B2701EA8426B
:1007B000ECDC215C074800F08DF80521054800F0CD
:1007C00087F800BF034800F07DF80028FAD1BDE8A3
:1007D000F08100000000024010B5144800F028FF2E
:1007E000134800F025FF00BF104800F035FF002837
:1007F000FAD00F4800F030FF0028F5D00D48FFF781
:10080000B1FE0D48FFF7AEFE01210C48FFF7F9FEDF
:1008100002210A48FFF7E7FE00F060FE04460022CE
:100820002146074800F058F810BD0000072000F0EE
:10083000030800F0020003000204030000700040FF
:1008400000300C402DE9F04107460E4614460022C8
:1008500039461B4800F06AF82178194800F03AF848
:100860000321174800F034F800BF154800F02AF8BB
:100870000028FAD101250FE0615D114800F02AF847
:1008800001210F4800F024F800BF0D4800F01AF8CD
:100890000028FAD1681CC5B2701EA842ECDC215CAD
:1008A000074800F017F80521054800F011F800BFCF
:1008B000034800F007F80028FAD1BDE8F0810000F5
:1008C00000300C40406810F0010018BF0120704754
:1008D0004160704781607047036A43F01003036210
:1008E000002A14BF0E4A0F4A02EB820301EB830376
:1008F00002EB820292005B1EB3FBF2F2521EC26058
:10090000D0F8C02F12F0010F08BF7047064A1144FB
:10091000521CB1FBF2F1491E41F08001C1607047E9
:10092000801A0600A08601007F47370142EA410194
:10093000016070471649042804BF086840F48030FD
:1009400018D0052804BF086840F4003012D00628EB
:1009500012D00F2815D0102838BF7047103800F07B
:100960001F01012202FA01F142090A4850F822004F
:100970000160704708607047086840F48020086094
:1009800070474FF0E020016941F0020101617047BA
:1009900024ED00E0A02B000030B40A4D2A680A4B79
:1009A0009A421CBFD5F800C0002207D05CF8224054
:1009B00043F82240521C9B2AF8D32B6043F82010A6
:1009C00030BC704708ED00E00004002010B500F0D6
:1009D00027FA0446072C0BD00B2C07D00D2C03D084
:1009E0000E2C07D1012010BD0220FCE70320FAE7FE
:1009F0000420F8E70020F6E710B5AE2000F055F827
:100A0000202000F052F8102000F04FF8B02000F045
:100A10004CF8C82000F049F8002000F046F81020FB
:100A200000F043F8402000F040F8812000F03DF84D
:100A3000FF2000F03AF8A12000F037F8A62000F0DF
:100A400034F8A82000F031F83F2000F02EF8A42060
:100A500000F02BF8D32000F028F8002000F025F853
:100A6000D52000F022F8F02000F01FF8D92000F087
:100A70001CF8222000F019F8DA2000F016F81220F5
:100A800000F013F8DB2000F010F8202000F00DF843
:100A90008D2000F00AF8142000F007F8AF2000F0D5
:100AA00004F82E2000F001F810BD38B504460025EA
:100AB0008DF800508DF801406A4602213C20FFF776
:100AC0004BFE38BD38B5044605A0006800908DF88F
:100AD00001406A4602213C20FFF73EFE38BD00007F
:100AE0004000000010B5AE2000F058F8D52000F00E
:100AF00055F8802000F052F8A82000F04FF81F2091
:100B000000F04CF8D32000F049F8002000F046F83F
:100B1000402000F043F88D2000F040F8142000F051
:100B20003DF8DA2000F03AF8022000F037F8812092
:100B300000F034F87F2000F031F8D92000F02EF8D2
:100B4000222000F02BF8DB2000F028F8402000F0F5
:100B500025F8A42000F022F8202000F01FF8002043
:100B600000F01CF8A62000F019F8AF2000F016F8ED
:100B700010BD70B500240EE00021204600F0B1F851
:100B8000002504E0002000F017F8681CC5B2802D95
:100B9000F8DB601CC4B2082CEEDB70BD38B504462F
:100BA00000258DF800508DF801406A4602213C2056
:100BB000FFF748FE38BD000038B5044605A00068C0
:100BC00000908DF801406A4602213C20FFF73AFE72
:100BD00038BD0000400000002DE9FC4105460F46ED
:100BE0009046C8F10F02D1B2C7F10302D0B200F0B3
:100BF00078F840208DF80000042453E00026A5F189
:100C0000200000EB80002C490844005D06EBD01664
:100C1000A5F1200000EB80000844005D00F04000DA
:100C200006EB6016A5F1200000EB80000844005D93
:100C300000F0200006EBE006A5F1200000EB8000AC
:100C40000844005D00F0100006EB6006A5F12000EE
:100C500000EB80000844005D00F0080006EB400651
:100C6000A5F1200000EB80000844005D00F00400C6
:100C700006EBC006A5F1200000EB80000844005DF3
:100C800000F0020006EB4016A5F1200000EB80000A
:100C90000844005D06EBC010C6B2C4F105000DF8B3
:100CA0000060641E002CA9DA6A4606213C20FFF78A
:100CB000C9FDBDE8FC810000082400002DE9F041D9
:100CC00004460F461646002506E03246761C605D57
:100CD0003946FFF781FF6D1C605D0028F5D1BDE846
:100CE000F08170B505460C4605F1B001C8B2FFF7BA
:100CF00055FFE107080FFFF751FFE100C1F30311B2
:100D000001F11000FFF74AFF70BD000010B5184850
:100D100000F08EFC00BF164800F09EFC0028FAD0C0
:100D20001448FFF71FFC01211348FFF778FC00224D
:100D30004021124800F024F84FF4166240210F4879
:100D400000F036F84FF4966240210C4800F041F86C
:100D50004FF496624121094800F03BF840210748D2
:100D600000F021F801220321044800F02AF810BD08
:100D7000004000F0060005000050024000800240E4
:100D8000084401686FF352011143016012F0020F31
:100D900014BFB0218C21016214BF4FF4306140F6C2
:100DA0000C0141627047425842F0010242507047C4
:100DB0000844016811F0020F14BF5108511E01616F
:100DC0007047002A826814BF114322EA0101816042
:100DD000704721F03F031844036813F0020F18BF57
:100DE000520803699A1A11F0010F14BFC26182619F
:100DF0007047000010B5084800F01AFC00BF064814
:100E000000F02AFC0028FAD010210448FFF7DDFB8F
:100E1000FFF77CFF10BD0000050800F00050024005
:100E20002DE9F84F0025A946AA46AB460024002626
:100E30000027A046002000909DB101214848FFF7FF
:100E4000B3FBF0B147480068A0421AD300BF454841
:100E5000006800EB4001C1EBC010372101EBC0047A
:100E60000FE001213E48FFF79FFB50B93D48006865
:100E7000A04206D301253B48006800F137040E204C
:100E80000090B9F1000F0FD002213548FFF78CFB1D
:100E9000D8B134480068B04217D34FF00009314848
:100EA000006800F1370610E002212D48FFF77CFBB7
:100EB00058B92C480068B04207D34FF001092948BF
:100EC000006800F137060D200090BAF1000F0FD036
:100ED00004212348FFF768FBD8B122480068B842D4
:100EE00017D34FF0000A1F48006800F1370710E0E1
:100EF00004211B48FFF758FB58B91A480068B8424C
:100F000007D34FF0010A1748006800F137070B209C
:100F10000090BBF1000F0FD008211148FFF744FBF0
:100F2000D8B110480068404517D34FF0000B0D486A
:100F3000006800F1370810E008210948FFF734FB8A
:100F400058B908480068404507D34FF0010B0548E1
:100F5000006800F13708072000900098BDE8F88F7E
:100F6000002006400000002010B50A4800F060FB99
:100F700000BF084800F070FB0028FAD00F21064897
:100F8000FFF715FB0A2301220F210348FFF732FA6E
:100F900010BD00000A0800F00020064010B5074808
:100FA00000F046FB00BF054800F056FB0028FAD0D1
:100FB000F0210348FFF709FB10BD00000B0800F00B
:100FC0000030064010B5074800F032FB00BF05486E
:100FD00000F042FB0028FAD003210348FFF7F5FA9E
:100FE00010BD00000C0800F0004006402DE9F84F4D
:100FF00080460D4691461E46DDF828B0F01DC1170B
:1010000000EB5171C91009B200914FF0000A00279E
:1010100025E000241DE004F0070020B14FEA4A60FB
:101020004FEA106A09E02046E11704EB5171CA103B
:10103000009907FB012119F801A00AF0800030B1E6
:10104000A9B208EB040290B2012200F00DF8601C76
:1010500004B2B442DFDB781C07B2681C05B25F45FE
:10106000D7DBBDE8F88F0000F0B503461446802BAF
:1010700001DA402900DBF0BD012C1CD1CD1701EBBA
:101080005575ED1003EBC515194E755D0A46CE1763
:1010900001EB5676F610A1EBC6070126BE4035439C
:1010A000EEB20846CD1701EB5575ED1003EBC515F3
:1010B0000F4F7E551AE0CD1701EB5575ED1003EB80
:1010C000C5150B4E755D0A46CE1701EB5676F61028
:1010D000A1EBC6070126BE40B5430846CE1701EB7B
:1010E0005676F61003EBC616014FBD5500BFC2E79A
:1010F0006C06002070B5002419E004F1B001C8B2FC
:10110000FFF7D3FC0020FFF7D0FC1020FFF7CDFC49
:10111000002508E0802101FB0451064A505CFFF7DE
:10112000D1FC681CC5B2802DF4DB601CC4B2082C55
:10113000E3DB70BD6C060020002004E00021044ABF
:101140001154411C88B2B0F5806FF7DB7047000086
:101150006C06002010B500200749086000F092FAE4
:10116000064800F0B9FA064800F0AAFA00F098FA2A
:1011700000F08FFA10BD0000000000206D38010063
:10118000B116000010B5174800F052FA00BF15481C
:1011900000F062FA0028FAD060234FF4E1321248DE
:1011A0000168124800F0B0FA1021104800F0E5FA8A
:1011B0000F490E4800F0E6FA0E4800F039FA00BF79
:1011C0000C4800F049FA0028FAD00120FFF7CAF9CC
:1011D00040F20140FFF7C6F903214FF04020FFF72E
:1011E0002CFA10BD001800F00C00002000C00040D8
:1011F00035180000000800F02DE9F003AD4D02465F
:101200002868AD4B1840A0F18053B3F5A02358D007
:1012100002F03809DFF8A482C2F38414B9F1100F88
:1012200024D0B9F1300F04BF47F230504FF400130F
:101230000CD03820904304BF4FF40040C30105D0C8
:1012400012F0380F1CBF0020034613D09C4F12F43D
:10125000605F4FF0000618BF00222CD057F83240D4
:1012600044457DD307EBC2025268DFE000234046CD
:101270001524EBE7A4F10900122822D29148D5F8F1
:101280007CC04FF04C7350F824002CF01C0C072C41
:10129000A8BF4CF0100CC5F87CC02E6D4FF4002C8C
:1012A00016F4807FD2D1BCF1010C0AD02E6D16F459
:1012B000807FF8D0CAE712F0380F18BFB9F1100FCD
:1012C00003D0BDE8F00300207047C2F30268DFF8E6
:1012D000F8C1002257F83290E14503D307EBC20270
:1012E000526803E0521C062AF4D33246C5F8C020E7
:1012F000D5F8B020DFF8D4C102EA0C0242F0004277
:10130000C5F8B020DFF8C8C1A4F109024C1E5CF892
:1013100028C0A444BCFBF1FCD5F8B0101943C5F8B3
:10132000B01008EBC80101EB41046A4902EB42022C
:1013300001EBC40101EB82046468C5F86441D5F88F
:1013400064416FF0FF0808EB0C2C44EA0C0CC5F864
:1013500064C151F82210D5F8602102F4000200E0C7
:101360005FE01143C5F86011D5F86011D5F8602130
:10137000C1F38921C2F30904D5F86421C2F3042220
:1013800002F1010CD5F8642102F01F02521CB0FBDF
:10139000F2F04A09C2F100084443424301EB48110C
:1013A00004EB5212484302EB9020B0FBFCF04108E2
:1013B0000846002257F832C0844503D307EBC20029
:1013C000466802E0521C062AF4D3C5F8C060D5F87E
:1013D000600110F4000F1DBFD5F8B00040F0804050
:1013E000C5F8B000D5F8600104BF40F40000C5F8AE
:1013F00060014FF40040D5F8682112F0010F02D1CE
:10140000401E0028F7DC002808BF002148D0D5F88E
:10141000B000184340F0010040F01040C5F8B000A3
:101420003EE0521C062AFFF419AF3246C5F8C02030
:10143000D5F8602122F40002C5F86021D5F8B0206B
:10144000DFF894C002EA0C0242F00042C5F8B02076
:10145000002908BF4FF0000C0AD0B0FBF1FCBCF132
:10146000000F18BFACF1010C0CF10101B0FBF1F160
:101470000846002257F83240844203D307EBC200EB
:10148000466802E0521C062AF4D3C5F8C060D5F8BD
:10149000B00043EA8C22104340F00040C5F8B00091
:1014A000D5F8B00020F47000C5F8B000BDE8F00336
:1014B0000846704700E00F400000FF700024F40071
:1014C000342A00001828000040787D0100FC0FE05D
:1014D0001028000084280000FF0300EF70B44B4D7B
:1014E0002A6E296F11F0004F14BF01F0700002F056
:1014F0003000202808BF464818D005DC88B11028E5
:1015000008BF444812D009E0302808BF47F23050E5
:101510000CD0702808BF4FF4004007D070BC0020EA
:1015200070477C203C4B00EA121018584FF0FF33F4
:1015300011F0004F02D011F4006F06D001F0004C02
:1015400002F400645CEA040C36D1D5F860C1D5F829
:10155000644104F01F06C4F30424641C761C16FBCB
:1015600004F46400B0FBF4F0CCF309044443CCF37E
:10157000892C00FB0CF0D5F810C004EB902042F44D
:1015800080020CF4704CBCF5804F08BF234B13D085
:1015900009DCBCF5005F08BF214B0DD0BCF5405FF6
:1015A00008BF204B08E0BCF5E04F08BF1E4B03D03E
:1015B000BCF5104F08BF1D4B12F4800F21D011F065
:1015C000004F19D011F0804F09D011F4006F0CD0EA
:1015D00001F0004C02F400625CEA020205D0C1F3A3
:1015E000C551491CB0FBF1F00BE04000C1F386513E
:1015F000491CB0FBF1F004E0C2F3C351491CB0FB3D
:10160000F1F0834238BF184670BC704700E00F40CD
:1016100000093D000024F40018280000005A62026E
:1016200000B4C40480F0FA0240787D01002D31013D
:10163000C0F307230749C0B2194401F07043C1F356
:10164000130143EA411141EA800040F00070012299
:101650000260704700E60F40C0F307220849C0B29D
:10166000114401F07042C1F3130142EA411141EA11
:10167000800040F000700068002818BF012070470B
:1016800000EA0F404FF0E020016921F00101016103
:1016900070474FF0E020016941F00501016170479A
:1016A0004FF0E020016941F0020101617047000044
:1016B00002480068401C0149086070470000002093
:1016C00010B501460F20FFF767F94FF0E0200169E0
:1016D00041F00201016110BD4FF0E021401E486160
:1016E0007047816911F0100F0CBF00684FF0FF3098
:1016F0007047826912F0200FFBD10160704780694A
:10170000012121EA10107047D0F818C01CF0080F12
:10171000FAD1D0F82CC02CF0100CC0F82CC0D0F8A6
:1017200030C02CF0010C2CF4407CC0F830C0D0F854
:1017300030C0B1EB021F34BF4CF0200C2CF0200C59
:10174000C0F830C038BF5208C900B1FBF2F1491CE3
:1017500049088A09426201F03F018162C3620021A7
:101760008161C16A41F01001C162016B40F2013236
:1017700011430163704741647047826B1143816379
:1017800070470000124A10B5104B12684FF0080C59
:10179000104C2240A2F18054B4F5202408BF0E4B17
:1017A000002253F83240844203D103EBC200446864
:1017B00003E0521C6245F4D300242046FFF7ECF806
:1017C0002046BDE81040FFF7B5B80000642A0000CD
:1017D00000E00F400000FF70A42A0000002914BFA1
:1017E000006CC06B7047000070B504460D4604E005
:1017F0000748FFF776FF04F8010B0548FFF77FFF66
:1018000020B1281EA5F10101CDB2F1DC70BD0000B0
:1018100000C0004070B504460D4604E014F8011BFA
:101820000348FFF766FF281EA5F10105F6D170BD3C
:1018300000C0004070B501210C48FFF7CFFF0546FE
:1018400029460A48FFF797FF0848FFF74AFFC4B246
:10185000074840780649087008468078487008466E
:10186000C07888700846C47070BD000000C0004099
:101870000400002070B500250120FEF779FDFFF778
:10188000A5F804468CB1012C06D0022C06D0032CFE
:1018900006D0042C08D105E0372505E0342503E007
:1018A000312501E0232500BF00BF0220FEF760FDC7
:1018B000FFF78CF8044694B18DB9012C06D0022CA8
:1018C00006D0032C06D0042C08D105E0382505E00D
:1018D000352503E0322501E0302500BF00BF03209D
:1018E000FEF746FDFFF772F8044694B18DB9012C5E
:1018F00006D0022C06D0032C06D0042C08D105E01B
:10190000392505E0362503E0332501E02A2500BF0F
:1019100000BF0420FEF72CFDFFF758F8044694B1F1
:101920008DB9012C06D0022C06D0032C06D0042C35
:1019300008D105E0412505E0422503E0432501E00B
:10194000442500BF00BF284670BD02E008C8121F32
:1019500008C1002AFAD170477047002001E001C198
:10196000121F002AFBD1704770B505460C460026B1
:101970006878522850D1E878312804D0E8783028A7
:1019800001D0761EA1E0A878302806D0312818D0E2
:10199000322828D033283BD139E0E878312802D1E9
:1019A0000120207001E00020207020784006020E07
:1019B00002214748FEF74FFE21780020FEF76AFC1F
:1019C00029E0E878312802D10120607001E0002090
:1019D0006070627801213E48FEF73DFE617801208B
:1019E000FEF758FC17E0E878312802D10120A070FA
:1019F00001E00020A070A0780007020E10213548F9
:101A0000FEF729FEA1780220FEF744FC03E002E085
:101A10004FF0FF3600BF58E06878542853D1A878BB
:101A2000582840D1E87831281BD1012020706070FF
:101A3000A07020784006020E02212548FEF70BFE1A
:101A4000627801212248FEF706FEA0780007020E08
:101A500010212048FEF7FFFD04211FA0FFF7DAFE4A
:101A600033E0E87830281BD1002020706070A0702F
:101A700020784006020E02211548FEF7ECFD627840
:101A800001211348FEF7E7FDA0780007020E1021A0
:101A90001048FEF7E0FD042111A0FFF7BBFE14E0A3
:101AA0004FF0FF3611E0A878532809D1E878542880
:101AB00003D12046FEF734FC07E04FF0FF3604E088
:101AC0004FF0FF3601E04FF0FF36304670BD0000AA
:101AD00000400640005002404054583100000000D1
:101AE00040545830000000000EB50020029054A071
:101AF0000068019000260027B04652495248FFF77F
:101B00007BFB52490860FFF725FBFFF773F9FFF7EE
:101B10002BFAFFF743FAFFF755FAFEF7E7FDFEF75A
:101B20006BFFFFF709FB18200346494A1921009073
:101B30000F20FFF75BFA18200346454A1921009051
:101B40003620FFF753FA18200346414A1921009026
:101B50005B20FFF74BFAFFF7CDFAFEF73DFEFEF7ED
:101B6000C1FFFFF706F8002211463AA0FFF7A6F8DA
:101B7000002201213BA0FFF7A1F8062202213DA08F
:101B8000FFF79CF8002203213BA0FFF797F80822FB
:101B900003213F20FFF720F8FFF7F4FA4FE0394820
:101BA000FFF7ADFDB0B13848056800BF36480168A1
:101BB000E81C8142FAD304213448FFF715FE33486C
:101BC0000078232803D102A93048FFF7CDFE02A8F0
:101BD000FEF744FDFFF74EFE044604B93F243F2CB8
:101BE0000BD0232C09D02A2C07D0B8F1000F04D138
:101BF00001A9204600F04CF880463F2C03D0232C4E
:101C000001D02A2C01D14FF000081F480068B842CB
:101C100008D31D48006800F164070822032120460C
:101C2000FEF7DAFF18480068B04208D3164800688B
:101C300000F164060622022101A8FFF73FF8AEE793
:101C40003530000000B4C404100000F00C00002087
:101C5000C8210000496E74656E7369646164652013
:101C6000646F00006272696C686F20646F204C457D
:101C7000443A0000202025005465636C613A205BE3
:101C8000205D000000C0004000000020080000208F
:101C900070B506460C46A6F13000152810D2DFE8D4
:101CA00000F00B10161D242B32394047D2D2D2D26D
:101CB000D2D2D24E7090B2000125302020706070D8
:101CC000C1E0F0253120207030206070BBE04FF47F
:101CD000F0753220207030206070B4E04FF434751D
:101CE0003320207030206070ADE04FF470753420E8
:101CF000207030206070A6E04FF49665352020708B
:101D0000302060709FE04FF4B465362020703020A2
:101D1000607098E04FF4D2653720207030206070FA
:101D200091E04FF4F06538202070302060708AE038
:101D30004FF40765392020703020607083E02078F0
:101D40003038C0EB0010010160783038182212FBE7
:101D50000010783005B2B5F5166F05DB40F6481572
:101D60003920207060700BE06078401D60706078F2
:101D7000392805DD2078401C207060780A386070B2
:101D800061E020783038C0EB001001016078303815
:101D9000182212FB0010783805B2002D04DC012552
:101DA0003020207060700BE06078401F60706078B9
:101DB000302805DA2078401E207060780A30607084
:101DC00041E020783038C0EB0010010160783038F5
:101DD000182212FB0010183005B2B5F5166F05DB9E
:101DE00040F648153920207060700BE06078401C88
:101DF00060706078392805DD2078401C207060789C
:101E00000A3860701FE020783038C0EB0010010104
:101E100060783038182212FB0010183805B2002DF7
:101E200004DC01253020207060700BE06078401EDB
:101E300060706078302805DA2078401E2070607865
:101E40000A30607000BF00BF2A4640210548FEF7F7
:101E5000C0FFC5F5166241210248FEF7BAFF012016
:101E600070BD000000800240000000000000000083
:101E70000000000000000000000000000000000062
:101E80000000000000000000000000000000000052
:101E900000000000000000001FE0001FFFFFFFFF28
:101EA000FFFFE000000000001FE0001FFFFFFFFF3A
:101EB000FFFFF000000000001FE0001FFFFFFFFF1A
:101EC000FFFFF000000000001FE0001FFFFFFFFF0A
:101ED000FFFFF000000000001FE0001FFFFFFFFFFA
:101EE000FFFFF000000000001FE0001FFFFFFFFFEA
:101EF000FFFFF000000000001FE0001FFFFFFFFFDA
:101F0000FFFFE000000000001FE0001FE00FF000F6
:101F100000000000000000001FE0001FE00FF3FFC2
:101F2000FFFFE000000000001FE0001FE00FF3FFD4
:101F3000FFFFF000000000001FE0001FE00FF3FFB4
:101F4000FFFFF000000000001FE0001FE00FF3FFA4
:101F5000FFFFF000000000001FE0001FE00FF3FF94
:101F6000FFFFF000000000001FE0001FE00FF3FF84
:101F7000FFFFF000000000001FE0001FE00FF3FF74
:101F8000FFFFE000000000001FE0001FE00FF3FC77
:101F900000000000000000001FE0001FE00FF3FD44
:101FA000FFFFF3FFF87FFF801FE0001FE00FF3FD4E
:101FB000FFFFF3FFFC7FFFE01FE0001FE00FF3FDDA
:101FC000FFFFF3FFFE7FFFF01FE0001FE00FF3FDB8
:101FD000FFFFF3FFFF7FFFF01FE0001FE00FF3FDA7
:101FE000FFFFF3F1FF7E07F81FE0001FE00FF3FD96
:101FF000FFFFF3E01FFE01F81FE0001FE00FF3FDFD
:10200000FFFFF3E01FFE01F81FE0001FE00FF3FDEC
:10201000FE0003E01FFE01F81FE0001FE00FF3FDCC
:10202000FE0003E01FFE01F81FE0001FE00FF3FDBC
:10203000FE0003E03FFE03F81FF0003FE00FF3FD5A
:10204000FE0003FFFF7FFFF01FF0003FE00FF3FDF6
:10205000FE0003FFFF7FFFE01FF0003FE00FF3FDF6
:10206000FE0003FFFE7FFFC01FF0003FE00FF3FD07
:10207000FE0003FFFC7FFF001FF8007FE00FF3FD71
:10208000FE0003FFF07E3F801FF8007FE00FF3FDAE
:10209000FE0003F0007E1FC00FFE01FFC00FF3FD26
:1020A000FE0003E0007E0FE00FFF87FFC00FF3FD8F
:1020B000FE0003E0007E07E007FFFFFF800FF3FD57
:1020C000FE0003E0007E07F003FFFFFF800FF3FD3B
:1020D000FE0003E0007E03F801FFFFFF000FF3FDA9
:1020E000FE0003E0007E01F800FFFFFE000FF3FD9D
:1020F000FE0003E0007E01FC007FFFF8000FF3FD0F
:10210000FE0003E0007E00FE001FFFE0000FF3FD75
:10211000FE0003E0007E007E0001FE0000000000E3
:1021200000000000000000000000000000000000AF
:1021300000000000000000000F00780FFFF81FFFF4
:10214000FC0CE3980C00181C001C18000C38000E46
:1021500038000E38000E38000E18000C1C001C0E43
:1021600000380FE3F863E3E078E3803CC1801FC1EF
:10217000800FC18003C18000C18000C180000000C9
:10218000000000003C00007E0000E70000C30000EB
:10219000C30000E700007E00003C000018000018AB
:1021A000007C183E7C183E60180670180E70180EE1
:1021B00038181C38181C1C18380F18F007DBE003FF
:1021C000FFC000FF000000000000000000003FFF13
:1021D000FC7FFFFE70000E600006600006600006D7
:1021E0006000066000066000066000066000066091
:1021F0000006601806703C0E7C7E3E3CFF3C01E70A
:102200008001C38003FFC003FFC000000000000086
:102210000000000000000000003FFFFC7FFFFE7098
:10222000000E600006600006600006000006000068
:10223000067800067E00061F000607800673C006AB
:1022400079C0063CE0060EE00E6E67FE6667FC0095
:102250000000000000000000000000007E0001FF00
:102260008003E7C00381C00700E00700E0060060CC
:102270000600600600600600600E00700E00700C24
:1022800000301C00381C00383FFFFC3FFFFC000002
:1022900000000000007E00007E00003C0000000006
:1022A0000000000000000000003FFFFC7FFFFE7008
:1022B000000E6000066000066000060000060000D8
:1022C000067800067E00061F000607800673C0061B
:1022D00079C0063CE0060EE00E6E67FE6667FC0005
:1022E00000000000000000000666000666000666AA
:1022F000000666000666000000000000007FFFFC8C
:102300007FFFFE60006F60006760006360006360D5
:10231000006760006F60007E60007C60006070009D
:10232000E07801E03FFFC01FFF80000000000000D8
:102330000000000181800181801FFFF83FFFFC3910
:10234000819C31818C30000C30000C3FFFFC3FFF42
:10235000FC30000C30000C30000C30000C30000C55
:1023600030000C30000C30000C30000C38001C3FEA
:10237000FFFC1FFFF800000000000000000000004C
:102380000003F0000FFC001E3E00380700700380C1
:10239000600180E001F8C000FCC0001EC00007E042
:1023A0000007E000036000037000073800073F00EB
:1023B0001E0FFFFC07FFF8000000000000000000F7
:1023C00000000000FF0003FFC007C3E00F00F01C87
:1023D000003838001C38001C70C30E70C30E60003B
:1023E00006600006600006607E0670FF0E71E78ED4
:1023F00039819C38001C1C00380F00F007C3E00333
:10240000FFC000FF00000000000000000000005FAF
:1024100000000007000700147F147F14242A7F2A7D
:102420001223130864623649552250000503000048
:10243000001C2241000041221C0014083E08140820
:10244000083E08080050300000080808080800602E
:1024500060000020100804023E5149453E00427FC2
:10246000400042615149462141454B311814127FC9
:102470001027454545393C4A494930017109050352
:102480003649494936064949291E003636000000BA
:10249000563600000814224100141414141400418C
:1024A0002214080201510906324979413E7E111178
:1024B000117E7F494949363E414141227F414122B7
:1024C0001C7F494949417F090909013E4149497A2F
:1024D0007F0808087F00417F41002040413F017F85
:1024E000081422417F404040407F020C027F7F045D
:1024F00008107F3E4141413E7F090909063E415196
:10250000215E7F09192946464949493101017F0168
:10251000013F4040403F1F2040201F3F4038403F88
:1025200063140814630708700807615149454300A4
:102530007F41410002040810200041417F00040255
:102540000102044040404040000102040020545475
:1025500054787F48444438384444442038444448FC
:102560007F3854545418087E0901020C5252523ECE
:102570007F0804047800447D40002040443D007FF3
:102580001028440000417F40007C041804787C0837
:1025900004047838444444387C141414080814148F
:1025A000187C7C080404084854545420043F4440D8
:1025B000203C4040207C1C2040201C3C4030403CC3
:1025C00044281028440C5050503C4464544C44005F
:1025D0000836410000007F00000041360800100866
:1025E000081008784641467800400040100000007E
:1025F0000080054010000000005000401100000065
:102600000090054011000000006000401200000032
:1026100000A0054012000000007000401300000000
:1026200000B005401300000000400240140000000C
:1026300000C0054014000000005002402E000000C1
:1026400000D005402E000000006002402F00000076
:1026500000E005402F000000007002403000000044
:1026600000F005403000000000D0034046000000AC
:102670000000064046000000001006404700000031
:102680000020064048000000003006407F000000A7
:10269000004006408000000000500640840000001A
:1026A000006006408C000000004000401000000068
:1026B00000800540100000000050004011000000A4
:1026C0000090054011000000006000401200000072
:1026D00000A0054012000000007000401300000040
:1026E00000B005401300000000400240140000004C
:1026F00000C0054014000000005002402E00000001
:1027000000D005402E000000006002402F000000B5
:1027100000E005402F000000007002403000000083
:1027200000F005403000000000D0034043000000EE
:102730000000064043000000001006404400000076
:102740000020064045000000003006405800000010
:102750000040064059000000005006405C000000A8
:102760000060064064000000007006406C0000003D
:10277000008006406D000000009006407F000000D1
:10278000004000400080054000500040009005409F
:102790000060004000A005400070004000B005400F
:1027A0000040024000C005400050024000D00540FB
:1027B0000060024000E005400070024000F005406B
:1027C00000D0034000000640001006400010064004
:1027D0000020064000200640003006400030064041
:1027E00000400640004006400050064000500640B1
:1027F0000060064000600640007006400070064021
:102800000080064000800640009006400090064090
:1028100000688909001C4E0E40420F0000201C0079
:1028200080841E0000802500999E360000403800FC
:1028300000093D0000803E0000004B00404B4C0072
:1028400000204E00808D5B0000C05D0000807000A5
:1028500000127A0000007D0080969800001BB700EF
:102860000080BB00C0E8CE00647ADA000024F400E7
:102870000000FA0080A81201002D310100366E011F
:1028800040787D01400000000000000000010000D1
:102890003E0008000000000000010000A000000051
:1028A000020000000001000034540100000000009C
:1028B000000100002B700600000000000001000075
:1028C00028000000000000000001000027000100B7
:1028D00000000000000100002000000000000000D7
:1028E0000001000050000000020000000001000094
:1028F0001AAC00000000000000010000179409005D
:102900000000000000010000169805000000000013
:1029100000010000140000000000000000010000A1
:10292000138008000000000000010000A00000006B
:10293000080000000001000010000000000000007E
:10294000000100002800000002000000000100005B
:1029500040000000040000000001000060000000D2
:1029600000000000000100005D000C0000000000FD
:102970000001000050000000000000000001000005
:102980004E000200000000000001000041AC010008
:1029900000000000000100003C00000000000000FA
:1029A000000100003A800900000000000001000062
:1029B00030000000000000000001000028000000BE
:1029C00000000000000100002700010000000000DE
:1029D000000100002360060000000000000100006C
:1029E0002160080000000000000100001E0000003F
:1029F00000000000000100001DC0040000000000F5
:102A00000001000050000000020000000001000072
:102A10001800000000000000000100001400000089
:102A20000000000000010000600000000400000041
:102A3000000100000024F40030003000005A62025F
:102A40009100910000879303D200D20000B4C40427
:102A50001301130100E1F50554015401000E27078D
:102A60009501950100C000401500000000D0004015
:102A70001600000000E000403100000000F00040BF
:102A80004B000000000001404C000000001001401D
:102A90004D000000002001404E00000000300140C9
:102AA0004F00000000C000401500000000D00040B2
:102AB0001600000000E000403100000000F000407F
:102AC00048000000000001404900000000100140E3
:102AD0004A000000002001404B000000003001408F
:102AE0004C00000000070000000600000005000088
:102AF00000040000000300000002000000010000CC
:102B0000000000000000000018ED00E01CED00E0F7
:102B100020ED00E000E400E004E400E008E400E070
:102B20000CE400E010E400E014E400E018E400E04D
:102B30001CE400E020E400E024E400E028E400E0FD
:102B40002CE400E030E400E034E400E038E400E0AD
:102B50003CE400E040E400E044E400E048E400E05D
:102B60004CE400E050E400E054E400E058E400E00D
:102B70005CE400E060E400E064E400E068E400E0BD
:102B80006CE400E070E400E074E400E078E400E06D
:102B90007CE400E080E400E084E400E088E400E01D
:102BA00000E100E004E100E008E100E00CE100E009
:102BB00010E100E080E100E084E100E088E100E075
:102BC0008CE100E090E100E000E200E004E200E0DF
:102BD00008E200E00CE200E010E200E080E200E049
:102BE00084E200E088E200E08CE200E090E200E0B5
:102BF000102C0000000000206C06000058020000AD
:102C0000202C00006C060020040600005A19000069
:102C100001FF01FF01FF01FF01FF01FF017900003A
:0400000500000201F4
:00000001FF
