:020000040000FA
:100000007008002001020000150200001702000025
:10001000190200001902000019020000000000008F
:1000200000000000000000000000000019020000B5
:10003000190200000000000019020000190200006F
:100040001902000019020000190200001902000044
:100050001902000019020000190200001902000034
:100060001902000019020000190200001902000024
:100070001902000019020000190200001902000014
:100080001902000019020000190200001902000004
:1000900019020000190200001902000019020000F4
:1000A00019020000190200001902000019020000E4
:1000B00019020000190200001902000019020000D4
:1000C00019020000190200001902000019020000C4
:1000D00019020000190200001902000019020000B4
:1000E00019020000190200001902000019020000A4
:1000F0001902000019020000190200001902000094
:100100001902000019020000190200001902000083
:100110001902000019020000190200001902000073
:100120001902000019020000190200001902000063
:100130001902000019020000190200001902000053
:100140001902000019020000190200001902000043
:100150000000000000000000190200001902000069
:10016000190200001902000000000000190200003E
:100170001902000019020000190200001902000013
:100180001902000019020000190200001902000003
:1001900019020000190200001902000019020000F3
:1001A00019020000190200001902000019020000E3
:1001B00019020000190200001902000019020000D3
:1001C00019020000190200001902000019020000C3
:1001D00019020000190200001902000019020000B3
:1001E00019020000190200001902000019020000A3
:1001F0001902000019020000190200001902000093
:100200004EF68850CEF20000016841F470010160A2
:1002100000F004B8FEE7FEE7FEE70000DFF810D0CC
:1002200000F008F800480047150F0000AFF3008009
:1002300070080020064C074D06E0E06840F001031E
:1002400094E8070098471034AC42F6D3FFF7EAFF72
:100250008C150000AC15000030B58C1810F8012B7F
:1002600012F00F0301D110F8013B120906D110F86A
:10027000012B03E010F8015B01F8015B5B1EF9D173
:1002800001E001F8013B521EFBD1A142E6D3002060
:1002900030BD000070B504460D46012D1AD124B9B9
:1002A00004211AA000F036FD2EE0012C04D1042117
:1002B00018A000F02FFD27E0022C04D1042117A084
:1002C00000F028FD20E0032C1ED1042115A000F031
:1002D00021FD19E024B9042114A000F01BFD13E056
:1002E000012C04D1042113A000F014FD0CE0022C19
:1002F00004D1042111A000F00DFD05E0032C03D171
:10030000042110A000F006FD70BD00004052303105
:1003100000000000405231310000000040523231F4
:1003200000000000405233310000000040523030E5
:1003300000000000405231300000000040523230D6
:1003400000000000405233300000000038B5044681
:10035000402000902078012804D19DF8000008304A
:10036000C0B200906078012804D19DF80000001D03
:10037000C0B20090A078012804D19DF80000801C34
:10038000C0B20090032104A000F0C4FC0121684623
:1003900000F0C0FC38BD000040545300D0F80034D9
:1003A00012F0010F14BF0B438B43C0F8003412F05E
:1003B000020FD0F8202414BF114322EA0101C0F833
:1003C000201470472DE9F04F574ED6F800C0574F14
:1003D000DFF85C810CEA070CC44524D04FF0000C18
:1003E0004FF001094FF0030AC2F3411509FA0CF46A
:1003F0000C4211D0D0F8C4BF4FEA4C040AFA04FEF4
:100400002BEA0E0BC0F8C4BFD0F8C4BF05FA04F441
:100410004BEA0404C0F8C44F0CF1010C0CF0FF0CC3
:10042000BCF1080FE2D3D0F800C512F0010F14BFE1
:100430004CEA010C2CEA010CC0F800C5D0F804C548
:1004400012F0020F14BF4CEA010C2CEA010CC0F8A8
:1004500004C5D0F808C512F0040F14BF4CEA010C13
:100460002CEA010CC0F808C5D0F818C512F0080F26
:1004700014BF4CEA010C2CEA010CC0F818C5D6F8E0
:1004800000C00CEA070CC44508D012F0100FD0F8D9
:100490003C250CBF8A430A43C0F83C25D0F80C2504
:1004A00013F0010F14BF0A438A43C0F80C25D0F89B
:1004B000102513F0020F14BF0A438A43C0F8102519
:1004C000D0F8142513F0040F14BF0A438A43C0F870
:1004D0001425D0F81C2513F0080F14BF0A438A43D3
:1004E000C0F81C2532683A40424511D0D0F8442566
:1004F00013F4007F0CBF8A430A43C0F84425D0F8A8
:10050000402513F4407F14BF0A438A43C0F84025B6
:10051000D0F82825002B0CBF114322EA0101C0F8B6
:100520002815BDE8F08F000000E00F400000FF70CC
:10053000000005100E4AC0F30741D26E01238B4024
:100540001A420C4A1ABF02EBC101496852F8311035
:10055000020AD1F82C354FF00F0C0CFA02FC00F017
:100560000F0023EA0C0390401843C1F82C05704794
:1005700000E00F401C11000030B50C460546082372
:100580000122FFF71FFF21462846BDE83040012227
:10059000FFF704BF30B50C4605460222FFF7FEFE0A
:1005A00021462846BDE8304008230122FFF70ABF54
:1005B00030B50C4605460222FFF7F0FE21462846DC
:1005C000BDE8304008230122FFF7FCBE40F821209F
:1005D000704700001649042804BF086840F48030C2
:1005E00018D0052804BF086840F4003012D006284F
:1005F00012D00F2815D0102838BF7047103800F0DF
:100600001F01012202FA01F142090A4850F82200B2
:100610000160704708607047086840F480200860F7
:1006200070474FF0E020016941F00201016170471D
:1006300024ED00E03C15000030B40A4D2A680A4B56
:100640009A421CBFD5F800C0002207D05CF82240B7
:1006500043F82240521C9B2AF8D32B6043F8201009
:1006600030BC704708ED00E00004002010B51848C9
:1006700000F05EFA00BF164800F06EFA0028FAD0CB
:100680001448FFF757FF01211348FFF783FF0022AB
:100690004021124800F024F84FF4166240210F4820
:1006A00000F036F84FF4966240210C4800F041F813
:1006B0004FF496624121094800F03BF84021074879
:1006C00000F021F801220321044800F02AF810BDAF
:1006D000004000F00600050000500240008002408B
:1006E000084401686FF352011143016012F0020FD8
:1006F00014BFB0218C21016214BF4FF4306140F669
:100700000C0141627047425842F00102425070476A
:100710000844016811F0020F14BF5108511E016115
:100720007047002A826814BF114322EA01018160E8
:10073000704721F03F031844036813F0020F18BFFD
:10074000520803699A1A11F0010F14BFC261826145
:100750007047000010B5084800F0EAF900BF0648ED
:1007600000F0FAF90028FAD010210448FFF704FF3E
:10077000FFF77CFF10BD0000050800F000500240AC
:1007800010B5074800F0D4F900BF054800F0E4F9BF
:100790000028FAD003210348FFF7EEFE10BD000049
:1007A0000C0800F00040064010B500200749086022
:1007B00000F0E8F9064800F00FFA064800F000FAE9
:1007C00000F0EEF900F0E5F910BD00000000002097
:1007D000ADD40100B10B000010B5174800F0A8F926
:1007E00000BF154800F0B8F90028FAD060234FF494
:1007F000E13212480168124800F006FA1021104850
:1008000000F03BFA0F490E4800F03CFA0E4800F0A9
:100810008FF900BF0C4800F09FF90028FAD00120A2
:10082000FFF788FE40F20140FFF784FE03214FF0FE
:100830004020FFF7BDFE10BD001800F00C000020A6
:1008400000C00040350D0000000800F02DE9F00365
:10085000AD4D02462868AD4B1840A0F18053B3F56A
:10086000A02358D002F03809DFF8A482C2F3841420
:10087000B9F1100F24D0B9F1300F04BF47F2305056
:100880004FF400130CD03820904304BF4FF40040C5
:10089000C30105D012F0380F1CBF0020034613D04F
:1008A0009C4F12F4605F4FF0000618BF00222CD05E
:1008B00057F8324044457DD307EBC2025268DFE06F
:1008C000002340461524EBE7A4F10900122822D2A8
:1008D0009148D5F87CC04FF04C7350F824002CF0B0
:1008E0001C0C072CA8BF4CF0100CC5F87CC02E6D5A
:1008F0004FF4002C16F4807FD2D1BCF1010C0AD049
:100900002E6D16F4807FF8D0CAE712F0380F18BFAA
:10091000B9F1100F03D0BDE8F00300207047C2F317
:100920000268DFF8F8C1002257F83290E14503D39E
:1009300007EBC202526803E0521C062AF4D3324687
:10094000C5F8C020D5F8B020DFF8D4C102EA0C0207
:1009500042F00042C5F8B020DFF8C8C1A4F1090296
:100960004C1E5CF828C0A444BCFBF1FCD5F8B010C8
:100970001943C5F8B01008EBC80101EB41046A49FE
:1009800002EB420201EBC40101EB82046468C5F88A
:100990006441D5F864416FF0FF0808EB0C2C44EA81
:1009A0000C0CC5F864C151F82210D5F8602102F48E
:1009B000000200E05FE01143C5F86011D5F8601156
:1009C000D5F86021C1F38921C2F30904D5F8642167
:1009D000C2F3042202F1010CD5F8642102F01F02D7
:1009E000521CB0FBF2F04A09C2F1000844434243F2
:1009F00001EB481104EB5212484302EB9020B0FB8C
:100A0000FCF041080846002257F832C0844503D361
:100A100007EBC200466802E0521C062AF4D3C5F870
:100A2000C060D5F8600110F4000F1DBFD5F8B0000C
:100A300040F08040C5F8B000D5F8600104BF40F434
:100A40000000C5F860014FF40040D5F8682112F0AD
:100A5000010F02D1401E0028F7DC002808BF00214A
:100A600048D0D5F8B000184340F0010040F01040E5
:100A7000C5F8B0003EE0521C062AFFF419AF32461A
:100A8000C5F8C020D5F8602122F40002C5F8602125
:100A9000D5F8B020DFF894C002EA0C0242F0004220
:100AA000C5F8B020002908BF4FF0000C0AD0B0FBF9
:100AB000F1FCBCF1000F18BFACF1010C0CF101010D
:100AC000B0FBF1F10846002257F83240844203D3CC
:100AD00007EBC200466802E0521C062AF4D3C5F8B0
:100AE000C060D5F8B00043EA8C22104340F00040CB
:100AF000C5F8B000D5F8B00020F47000C5F8B0001B
:100B0000BDE8F0030846704700E00F400000FF70AA
:100B10000024F400D0130000B411000040787D01DF
:100B200000FC0FE0AC11000020120000FF0300EFFA
:100B3000C0F307230749C0B2194401F07043C1F361
:100B4000130143EA411141EA800040F000700122A4
:100B50000260704700E60F40C0F307220849C0B2A8
:100B6000114401F07042C1F3130142EA411141EA1C
:100B7000800040F000700068002818BF0120704716
:100B800000EA0F404FF0E020016921F0010101610E
:100B900070474FF0E020016941F0050101617047A5
:100BA0004FF0E020016941F002010161704700004F
:100BB00002480068401C014908607047000000209E
:100BC00010B501460F20FFF737FD4FF0E020016917
:100BD00041F00201016110BD4FF0E021401E48616B
:100BE0007047816911F0100F0CBF00684FF0FF30A3
:100BF0007047826912F0200FFBD101607047806955
:100C0000012121EA10107047D0F818C01CF0080F1D
:100C1000FAD1D0F82CC02CF0100CC0F82CC0D0F8B1
:100C200030C02CF0010C2CF4407CC0F830C0D0F85F
:100C300030C0B1EB021F34BF4CF0200C2CF0200C64
:100C4000C0F830C038BF5208C900B1FBF2F1491CEE
:100C500049088A09426201F03F018162C3620021B2
:100C60008161C16A41F01001C162016B40F2013241
:100C700011430163704741647047826B1143816384
:100C800070470000124A10B5104B12684FF0080C64
:100C9000104C2240A2F18054B4F5202408BF0E4B22
:100CA000002253F83240844203D103EBC20044686F
:100CB00003E0521C6245F4D300242046FFF7BCFC3D
:100CC0002046BDE81040FFF785BC0000001400007E
:100CD00000E00F400000FF7040140000002914BF26
:100CE000006CC06B7047000070B504460D4604E010
:100CF0000748FFF776FF04F8010B0548FFF77FFF71
:100D000020B1281EA5F10101CDB2F1DC70BD0000BB
:100D100000C0004070B504460D4604E014F8011B05
:100D20000348FFF766FF281EA5F10105F6D170BD47
:100D300000C0004070B501210C48FFF7CFFF054609
:100D400029460A48FFF797FF0848FFF74AFFC4B251
:100D50000748407806490870084680784870084679
:100D6000C07888700846C47070BD000000C00040A4
:100D70000400002002E008C8121F08C1002AFAD1AE
:100D800070477047002001E001C1121F002AFBD10B
:100D90007047000070B505460C460026687852285A
:100DA00050D1E878312804D0E878302801D0761E78
:100DB000A1E0A878302806D0312818D0322828D0D1
:100DC00033283BD139E0E878312802D10120207066
:100DD00001E00020207020784006020E02214748E2
:100DE000FFF7F4FB21780020FFF754FA29E0E878B8
:100DF000312802D10120607001E00020607062782B
:100E000001213E48FFF7E2FB61780120FFF742FA3B
:100E100017E0E878312802D10120A07001E000201D
:100E2000A070A0780007020E10213548FFF7CEFB16
:100E3000A1780220FFF72EFA03E002E04FF0FF3620
:100E400000BF58E06878542853D1A878582840D17A
:100E5000E87831281BD1012020706070A0702078C4
:100E60004006020E02212548FFF7B0FB62780121FF
:100E70002248FFF7ABFBA0780007020E10212048A4
:100E8000FFF7A4FB04211FA0FFF744FF33E0E8783D
:100E900030281BD1002020706070A07020784006A0
:100EA000020E02211548FFF791FB627801211348D9
:100EB000FFF78CFBA0780007020E10211048FFF707
:100EC00085FB042111A0FFF725FF14E04FF0FF364A
:100ED00011E0A878532809D1E878542803D1204696
:100EE000FFF734FA07E04FF0FF3604E04FF0FF362B
:100EF00001E04FF0FF36304670BD00000040064074
:100F00000050024040545831000000004054583016
:100F10000000000008B50020009014491448FFF7B5
:100F200095FC14490860FFF73FFCFFF713FCFFF73F
:100F300027FCFFF751FC17E00F48FFF760FE98B160
:100F40000E48046800BF0D480168E01C8142FAD3D6
:100F500004210B48FFF7C8FE09480078232803D175
:100F600069460748FFF716FFE6E70000000E27076F
:100F7000800600F10C00002000C0004000000020AE
:100F800008000020004000401000000000800540E4
:100F900010000000005000401100000000900540CB
:100FA00011000000006000401200000000A0054099
:100FB00012000000007000401300000000B0054067
:100FC00013000000004002401400000000C0054073
:100FD00014000000005002402E00000000D0054028
:100FE0002E000000006002402F00000000E00540DD
:100FF0002F000000007002403000000000F00540AB
:101000003000000000D00340460000000000064011
:101010004600000000100640470000000020064087
:1010200048000000003006407F00000000400640FD
:101030008000000000500640840000000060064070
:101040008C000000004000401000000000800540BF
:10105000100000000050004011000000009005400A
:1010600011000000006000401200000000A00540D8
:1010700012000000007000401300000000B00540A6
:1010800013000000004002401400000000C00540B2
:1010900014000000005002402E00000000D0054067
:1010A0002E000000006002402F00000000E005401C
:1010B0002F000000007002403000000000F00540EA
:1010C0003000000000D00340430000000000064054
:1010D00043000000001006404400000000200640CD
:1010E0004500000000300640580000000040064067
:1010F00059000000005006405C00000000600640FF
:1011000064000000007006406C0000000080064093
:101110006D000000009006407F000000004000408D
:1011200000800540005000400090054000600040F5
:1011300000A005400070004000B0054000400240A3
:1011400000C005400050024000D005400060024051
:1011500000E005400070024000F0054000D0034070
:101160000000064000100640001006400020064027
:101170000020064000300640003006400040064097
:101180000040064000500640005006400060064007
:101190000060064000700640007006400080064077
:1011A00000800640009006400090064000688909D3
:1011B000001C4E0E40420F0000201C0080841E00C8
:1011C00000802500999E36000040380000093D004F
:1011D00000803E0000004B00404B4C0000204E00C1
:1011E000808D5B0000C05D000080700000127A00FE
:1011F00000007D0080969800001BB7000080BB00B7
:10120000C0E8CE00647ADA000024F4000000FA009E
:1012100080A81201002D310100366E0140787D0159
:101220004000000000000000000100003E00080037
:101230000000000000010000A0000000020000000B
:101240000001000034540100000000000001000013
:101250002B700600000000000001000028000000C4
:101260000000000000010000270001000000000055
:10127000000100002000000000000000000100004C
:101280005000000002000000000100001AAC000045
:101290000000000000010000179409000000000099
:1012A0000001000016980500000000000001000089
:1012B000140000000000000000010000138008007E
:1012C0000000000000010000A00000000800000075
:1012D00000010000100000000000000000010000FC
:1012E0002800000002000000000100004000000093
:1012F0000400000000010000600000000000000089
:10130000000100005D000C00000000000001000072
:101310005000000000000000000100004E0002002C
:10132000000000000001000041AC010000000000CE
:10133000000100003C00000000000000000100006F
:101340003A800900000000000001000030000000A9
:101350000000000000010000280000000000000064
:101360000001000027000100000000000001000053
:10137000236006000000000000010000216008005A
:1013800000000000000100001E000000000000003E
:10139000000100001DC0040000000000000100006A
:1013A00050000000020000000001000018000000D2
:1013B0000000000000010000140000000000000018
:1013C00000010000600000000400000000010000B7
:1013D0000024F40030003000005A620291009100B5
:1013E00000879303D200D20000B4C4041301130198
:1013F00000E1F50554015401000E27079501950100
:1014000000C000401500000000D0004016000000A1
:1014100000E000403100000000F000404B00000000
:10142000000001404C000000001001404D00000091
:10143000002001404E000000003001404F0000003D
:1014400000C000401500000000D000401600000061
:1014500000E000403100000000F0004048000000C3
:101460000000014049000000001001404A00000057
:10147000002001404B000000003001404C00000003
:101480000007000000060000000500000004000046
:101490000003000000020000000100000000000046
:1014A0000000000018ED00E01CED00E020ED00E081
:1014B00000E400E004E400E008E400E00CE400E004
:1014C00010E400E014E400E018E400E01CE400E0B4
:1014D00020E400E024E400E028E400E02CE400E064
:1014E00030E400E034E400E038E400E03CE400E014
:1014F00040E400E044E400E048E400E04CE400E0C4
:1015000050E400E054E400E058E400E05CE400E073
:1015100060E400E064E400E068E400E06CE400E023
:1015200070E400E074E400E078E400E07CE400E0D3
:1015300080E400E084E400E088E400E000E100E012
:1015400004E100E008E100E00CE100E010E100E06F
:1015500080E100E084E100E088E100E08CE100E06F
:1015600090E100E000E200E004E200E008E200E0D8
:101570000CE200E010E200E080E200E084E200E043
:1015800088E200E08CE200E090E200E0AC150000B0
:10159000000000206C06000058020000BC1500008E
:1015A0006C06002004020000840D000001FF01FF12
:0C15B00001FF01FF01FF01FF01790000B5
:0400000500000201F4
:00000001FF
