:020000040000FA
:100000007008002001020000150200001702000025
:10001000190200001902000019020000000000008F
:1000200000000000000000000000000019020000B5
:10003000190200000000000019020000190200006F
:100040001902000019020000190200001902000044
:100050001902000019020000190200001902000034
:100060001902000019020000190200001902000024
:100070001902000019020000190200001902000014
:100080001902000019020000190200001902000004
:1000900019020000190200001902000019020000F4
:1000A00019020000190200001902000019020000E4
:1000B00019020000190200001902000019020000D4
:1000C00019020000190200001902000019020000C4
:1000D00019020000190200001902000019020000B4
:1000E00019020000190200001902000019020000A4
:1000F0001902000019020000190200001902000094
:100100001902000019020000190200001902000083
:100110001902000019020000190200001902000073
:100120001902000019020000190200001902000063
:100130001902000019020000190200001902000053
:100140001902000019020000190200001902000043
:100150000000000000000000190200001902000069
:10016000190200001902000000000000190200003E
:100170001902000019020000190200001902000013
:100180001902000019020000190200001902000003
:1001900019020000190200001902000019020000F3
:1001A00019020000190200001902000019020000E3
:1001B00019020000190200001902000019020000D3
:1001C00019020000190200001902000019020000C3
:1001D00019020000190200001902000019020000B3
:1001E00019020000190200001902000019020000A3
:1001F0001902000019020000190200001902000093
:100200004EF68850CEF20000016841F470010160A2
:1002100000F004B8FEE7FEE7FEE70000DFF810D0CC
:1002200000F040F8004800470D120000AFF30080D6
:1002300070080020421C10F8011B0029FBD1801A15
:1002400070472DE9F05F0546002092469B468846A0
:100250000646814640241BE0284641464746224642
:1002600000F041F853465A46C01A914110D3114646
:100270001846224600F028F82D1A67EB01084F4671
:1002800022460120002100F01FF817EB00094E4123
:10029000201EA4F10104DFDC484631462A464346CD
:1002A000BDE8F09F064C074D06E0E06840F0010312
:1002B00094E8070098471034AC42F6D3FFF7B2FF3A
:1002C000E815000008160000202A04DB203A00FA96
:1002D00002F1002070479140C2F1200320FA03F39D
:1002E000194390407047202A04DB203A21FA02F09B
:1002F0000021704721FA02F3D040C2F12002914060
:1003000008431946704730B58C1810F8012B12F0CD
:100310000F0301D110F8013B120906D110F8012B8F
:1003200003E010F8015B01F8015B5B1EF9D101E00D
:1003300001F8013B521EFBD1A142E6D3002030BDA3
:1003400010B50446012C06D0022C0AD0032C0ED086
:10035000042C18D111E0E022F0210F4800F009F937
:1003600017E0D022F0210C4800F003F911E0B02290
:10037000F021094800F0FDF80BE07022F02106485A
:1003800000F0F7F805E0F0221146034800F0F1F81C
:1003900000BF00BF10BD000000300640D0F80034A0
:1003A00012F0010F14BF0B438B43C0F8003412F05E
:1003B000020FD0F8202414BF114322EA0101C0F833
:1003C000201470472DE9F04F574ED6F800C0574F14
:1003D000DFF85C810CEA070CC44524D04FF0000C18
:1003E0004FF001094FF0030AC2F3411509FA0CF46A
:1003F0000C4211D0D0F8C4BF4FEA4C040AFA04FEF4
:100400002BEA0E0BC0F8C4BFD0F8C4BF05FA04F441
:100410004BEA0404C0F8C44F0CF1010C0CF0FF0CC3
:10042000BCF1080FE2D3D0F800C512F0010F14BFE1
:100430004CEA010C2CEA010CC0F800C5D0F804C548
:1004400012F0020F14BF4CEA010C2CEA010CC0F8A8
:1004500004C5D0F808C512F0040F14BF4CEA010C13
:100460002CEA010CC0F808C5D0F818C512F0080F26
:1004700014BF4CEA010C2CEA010CC0F818C5D6F8E0
:1004800000C00CEA070CC44508D012F0100FD0F8D9
:100490003C250CBF8A430A43C0F83C25D0F80C2504
:1004A00013F0010F14BF0A438A43C0F80C25D0F89B
:1004B000102513F0020F14BF0A438A43C0F8102519
:1004C000D0F8142513F0040F14BF0A438A43C0F870
:1004D0001425D0F81C2513F0080F14BF0A438A43D3
:1004E000C0F81C2532683A40424511D0D0F8442566
:1004F00013F4007F0CBF8A430A43C0F84425D0F8A8
:10050000402513F4407F14BF0A438A43C0F84025B6
:10051000D0F82825002B0CBF114322EA0101C0F8B6
:100520002815BDE8F08F000000E00F400000FF70CC
:100530000000051050F82100704730B50C46054604
:100540000022FFF72BFF21462846BDE83040082354
:100550000122FFF737BF30B50C46054608230122BC
:10056000FFF730FF21462846BDE830400122FFF763
:1005700015BF40F82120704730B40A4D2A680A4B55
:100580009A421CBFD5F800C0002207D05CF8224078
:1005900043F82240521C9B2AF8D32B6043F82010CA
:1005A00030BC704708ED00E00004002010B50446A0
:1005B000E2B207210148FFF7DCFF10BD0030064022
:1005C00010B50446E2B2FF210148FFF7D2FF10BD8B
:1005D0000010064010B504462046FFF7F1FF012049
:1005E000FFF7E4FF062000F00FFC0520FFF7DEFF19
:1005F000062000F009FC0120FFF7D8FF282000F0BA
:1006000003FC4FF4C86000F0FFFB10BD10B50446BA
:100610002046FFF7D5FF0020FFF7C8FF062000F0B7
:10062000F3FB0420FFF7C2FF062000F0EDFB0020E3
:10063000FFF7BCFF282000F0E7FB10BD10B54020FD
:10064000FFF7E4FF0E20FFF7C5FF1B20FFF7C2FFF7
:100650001120FFF7BFFF1120FFF7BCFF1120FFF7AC
:10066000B9FF1120FFF7B6FF1120FFF7B3FF1F20DE
:10067000FFF7B0FF4820FFF7C9FF0E20FFF7AAFFE2
:100680001B20FFF7A7FF1120FFF7A4FF1120FFF7A2
:10069000A1FF1120FFF79EFF1120FFF79BFF1F20F6
:1006A000FFF798FF1F20FFF795FF5020FFF7AEFFE1
:1006B0000E20FFF78FFF1B20FFF78CFF1120FFF7A5
:1006C00089FF1120FFF786FF1120FFF783FF1F200E
:1006D000FFF780FF1F20FFF77DFF1F20FFF77AFF46
:1006E0005820FFF793FF0E20FFF774FF1B20FFF742
:1006F00071FF1120FFF76EFF1120FFF76BFF1F2026
:10070000FFF768FF1F20FFF765FF1F20FFF762FF5D
:100710001F20FFF75FFF6020FFF778FF0E20FFF735
:1007200059FF1B20FFF756FF1120FFF753FF1F2033
:10073000FFF750FF1F20FFF74DFF1F20FFF74AFF75
:100740001F20FFF747FF1F20FFF744FF6820FFF738
:100750005DFF0E20FFF73EFF1B20FFF73BFF1F2032
:10076000FFF738FF1F20FFF735FF1F20FFF732FF8D
:100770001F20FFF72FFF1F20FFF72CFF1F20FFF781
:1007800029FF7020FFF742FF0E20FFF723FF1F20F5
:10079000FFF720FF1F20FFF71DFF1F20FFF71AFFA5
:1007A0001F20FFF717FF1F20FFF714FF1F20FFF781
:1007B00011FF1F20FFF70EFF7820FFF727FF04200F
:1007C000FFF708FF0E20FFF705FF0E20FFF702FFDF
:1007D0000E20FFF7FFFE0E20FFF7FCFE1F20FFF7A5
:1007E000F9FE0020FFF7F6FE0420FFF7F3FE10BD30
:1007F00010B50020FFF7DAFE102000F0F5FA3820DF
:10080000FFF704FF0C20FFF701FF0120FFF7FEFEBA
:100810000620FFF7FBFE4FF4C86000F0F5FA10BDAC
:1008200010B50F210B48FFF785FE00F00F04072CD1
:100830000BD00B2C07D00D2C03D00E2C07D1012090
:1008400010BD0220FCE70320FAE70420F8E70020AF
:10085000F6E70000002006402DE9F04100260027C1
:1008600000240025A046C6B101213448FFF762FEEE
:1008700068B33348006800EB4001C1EBC010B4EB33
:10088000C00F24D800BF2E48006800EB4001C1EB28
:10089000C010372101EBC00419E001212748FFF700
:1008A00049FEA0B92648006800EB4001C1EBC0102A
:1008B000B4EBC00F0BD801262148006800EB4001C3
:1008C000C1EBC010372101EBC00408F10208C7B129
:1008D00002211A48FFF72EFE68B31948006800EBA2
:1008E0004001C1EBC010B5EBC00F24D8002714485D
:1008F000006800EB4001C1EBC010372101EBC005DF
:1009000019E002210D48FFF715FEA0B90C48006858
:1009100000EB4001C1EBC010B5EBC00F0BD80127B5
:100920000748006800EB4001C1EBC010372101EB24
:10093000C00508F101084046BDE8F08100D0034041
:100940000000002010B50A4800F0F4F900BF084884
:1009500000F004FA0028FAD003210648FFF7EDFD65
:100960000A23012203210348FFF72CFD10BD0000DC
:10097000080800F000D0034010B5074800F0DAF98D
:1009800000BF054800F0EAF90028FAD0FF2103482B
:10099000FFF7E1FD10BD0000090800F0001006405F
:1009A00010B50A4800F0C6F900BF084800F0D6F9B3
:1009B0000028FAD00F210648FFF7BFFD0A230122C5
:1009C0000F210348FFF7FEFC10BD00000A0800F0ED
:1009D0000020064010B5074800F0ACF900BF0548FC
:1009E00000F0BCF90028FAD0F7210348FFF7B3FD67
:1009F00010BD00000B0800F00030064010B507489D
:100A000000F098F900BF054800F0A8F90028FAD0D6
:100A100003210348FFF79FFD10BD00000C0800F004
:100A20000040064010B500200749086000F0ACF90E
:100A30003D2000F0D3F9054800F0C4F900F0B2F908
:100A400000F0A9F910BD000000000020B50D000065
:100A50002DE9F003AD4D02462868AD4B1840A0F1DA
:100A60008053B3F5A02358D002F03809DFF8A482F0
:100A7000C2F38414B9F1100F24D0B9F1300F04BFC0
:100A800047F230504FF400130CD03820904304BF8D
:100A90004FF40040C30105D012F0380F1CBF0020F6
:100AA000034613D09C4F12F4605F4FF0000618BF4E
:100AB00000222CD057F8324044457DD307EBC202C8
:100AC0005268DFE0002340461524EBE7A4F109005B
:100AD000122822D29148D5F87CC04FF04C7350F8C0
:100AE00024002CF01C0C072CA8BF4CF0100CC5F8EF
:100AF0007CC02E6D4FF4002C16F4807FD2D1BCF157
:100B0000010C0AD02E6D16F4807FF8D0CAE712F0DF
:100B1000380F18BFB9F1100F03D0BDE8F003002063
:100B20007047C2F30268DFF8F8C1002257F832902C
:100B3000E14503D307EBC202526803E0521C062AC8
:100B4000F4D33246C5F8C020D5F8B020DFF8D4C1C0
:100B500002EA0C0242F00042C5F8B020DFF8C8C13A
:100B6000A4F109024C1E5CF828C0A444BCFBF1FCB3
:100B7000D5F8B0101943C5F8B01008EBC80101EB67
:100B800041046A4902EB420201EBC40101EB820419
:100B90006468C5F86441D5F864416FF0FF0808EB5C
:100BA0000C2C44EA0C0CC5F864C151F82210D5F89D
:100BB000602102F4000200E05FE01143C5F860111B
:100BC000D5F86011D5F86021C1F38921C2F3090479
:100BD000D5F86421C2F3042202F1010CD5F8642196
:100BE00002F01F02521CB0FBF2F04A09C2F10008E9
:100BF0004443424301EB481104EB5212484302EBD9
:100C00009020B0FBFCF041080846002257F832C0A3
:100C1000844503D307EBC200466802E0521C062A53
:100C2000F4D3C5F8C060D5F8600110F4000F1DBF03
:100C3000D5F8B00040F08040C5F8B000D5F86001AC
:100C400004BF40F40000C5F860014FF40040D5F83F
:100C5000682112F0010F02D1401E0028F7DC0028A5
:100C600008BF002148D0D5F8B000184340F001007B
:100C700040F01040C5F8B0003EE0521C062AFFF4D8
:100C800019AF3246C5F8C020D5F8602122F4000221
:100C9000C5F86021D5F8B020DFF894C002EA0C0254
:100CA00042F00042C5F8B020002908BF4FF0000C08
:100CB0000AD0B0FBF1FCBCF1000F18BFACF1010C85
:100CC0000CF10101B0FBF1F10846002257F8324067
:100CD000844203D307EBC200466802E0521C062A96
:100CE000F4D3C5F8C060D5F8B00043EA8C221043B5
:100CF00040F00040C5F8B000D5F8B00020F4700016
:100D0000C5F8B000BDE8F0030846704700E00F40AA
:100D10000000FF700024F400B81500009C130000D0
:100D200040787D0100FC0FE09413000008140000DF
:100D3000FF0300EFC0F307230749C0B2194401F0D5
:100D40007043C1F3130143EA411141EA800040F0CE
:100D5000007001220260704700E60F40C0F30722D6
:100D60000849C0B2114401F07042C1F3130142EAD4
:100D7000411141EA800040F000700068002818BF6F
:100D80000120704700EA0F404FF0E020016921F098
:100D90000101016170474FF0E020016941F0050158
:100DA000016170474FF0E020016941F002010161EB
:100DB0007047000002480068401C01490860704705
:100DC0000000002010B501460F20FFF7D5FB4FF0C3
:100DD000E020016941F00201016110BD4FF0E02106
:100DE000401E48617047000000EB4002C2EBC01299
:100DF000044B1B6803EBC20100BF024A12688A421F
:100E0000FBD3704700000020044A1268111800BF8D
:100E1000024A12688A42FBD370470000000000209B
:100E200070B500250120FFF78BFAFFF7F9FC0446A7
:100E30008CB1012C06D0022C06D0032C06D0042C39
:100E400008D105E0372505E0342503E0312501E030
:100E5000232500BF00BF0220FFF772FAFFF7E0FC76
:100E6000044694B18DB9012C06D0022C06D0032C77
:100E700006D0042C08D105E0382505E0352503E02F
:100E8000322501E0302500BF00BF0320FFF758FAEC
:100E9000FFF7C6FC044694B18DB9012C06D0022C94
:100EA00006D0032C06D0042C08D105E0392505E036
:100EB000362503E0332501E02A2500BF00BF0420CA
:100EC000FFF73EFAFFF7ACFC044694B18DB9012C54
:100ED00006D0022C06D0032C06D0042C08D105E045
:100EE000412505E0422503E0432501E0442500BFFC
:100EF00000BF284670BD00000FB4084B10B504A910
:100F000002AA039800F01CF8044602A9002000F091
:100F100077F9204610BC5DF814FB000001120000B8
:100F200002E008C8121F08C1002AFAD170477047B2
:100F3000002001E001C1121F002AFBD17047000010
:100F40002DE9FF4F8DB09B460F460446002606E074
:100F500025280BD05A460F999047641C761C2078A0
:100F60000028F5D111B03046BDE8F08F0025A84625
:100F70000122984900E0054314F8013F203B02FAA2
:100F800003F00842F7D120782E2817D114F8010F6A
:100F900045F004052A280ED06FF02F022078A0F12A
:100FA000300109290AD808EB880102EB410100EB66
:100FB0000108641CF2E757F8048B641C20786C2845
:100FC0000DD004DC4C2812D06A2811D104E074281A
:100FD0000DD07A280CD10AE045F4001507E06178BD
:100FE00045F48015814202D1641C05F58015641C0E
:100FF0002078692844D008DC0028B3D0582867D06E
:1010000063280FD0642808D13AE0702865D073288F
:1010100012D075285AD078285AD05A460F9990473E
:10102000761CD5E017F8040B8DF8000000208DF831
:101030000100E946012003E057F8049B4FF0FF3020
:1010400069074FF0000501D40AE06D1C45450DDA33
:101050008542FADB19F805100029F6D106E06D1C6F
:101060008542FCDB19F805100029F8D12E4404E074
:1010700019F8010B5A460F9990476D1EF8D2A7E058
:101080000A200021CDE90801C5F3025002280CD046
:1010900001CFC117021E71F100020CDA0023D0EB60
:1010A000030063EB01012D2208E0FF1D27F0070775
:1010B000F7E80201EEE72A0504D52B228DF8282057
:1010C00001223CE0EA073AD02022F7E70A2000E0BC
:1010D00010200021CDE9080107E01020002145F093
:1010E0000405CDE908014FF00808C5F302500228B5
:1010F00010D001CF00214FF0000A2A0720D5227816
:10110000702A0DD0DDE908C38CF0100C5CEA030CEA
:101110000CD015E0FF1D27F00707F7E80201EAE70A
:1011200040228DF828204FF0010A0CE050EA01031C
:1011300006D030238DF828308DF8292002229246DF
:101140002278582A04D024A20DF120090B9209E03C
:1011500026A2F9E7DDE90823FFF773F80B9B9B5CF8
:1011600009F8013D50EA0102F4D1ADEB090020304D
:101170000890680701D44FF001080899884503DDFD
:101180000898A8EB000000E000208046002506E05B
:101190000AA85A46405D0F9990476D1C761C55452C
:1011A000F6DB04E030205A460F999047761CB8F1E0
:1011B0000001A8F10108F5DC05E019F8010B5A4619
:1011C0000F999047761C0899481E08900029F4DC76
:1011D000641CC4E609280100303132333435363717
:1011E0003839616263646566000000003031323373
:1011F0003435363738394142434445460000000013
:101200000A68531C0B601070704700001FB55549E9
:101210005548FFF71DFC55490860FFF703FCFFF731
:1012200091FBFFF7A9FBFFF7BBFBFFF7D3FBFFF732
:10123000E5FBFFF7DDFAFFF701FA4DA16846FFF77E
:101240005BFE8020FFF7E2F9002504E01DF80500B1
:10125000FFF7C0F96D1C6846FEF7ECFFA842F5D811
:101260000020FFF7B7F90220FFF7B4F90420FFF7D9
:10127000B1F90620FFF7AEF973E0FFF7D1FD0446A0
:10128000412C05D0422C03D0432C01D0442C04D156
:10129000012203213A48FFF76CF9232C05D0312CA9
:1012A00003D0342C01D0372C04D10222032134483E
:1012B000FFF75FF9302C05D0322C03D0352C01D04C
:1012C000382C04D1032211462D48FFF752F92A2C5D
:1012D00005D0332C03D0362C01D0392C04D1032275
:1012E00011462748FFF745F904B93F24C020FFF70E
:1012F0008DF92346224623A16846FFF7FDFD002510
:1013000004E01DF80500FFF765F96D1C6846FEF75F
:1013100091FFA842F5D8FFF79FFA012805D10122D5
:1013200003211748FFF725F91BE0FFF795FA02287C
:1013300005D1022203211248FFF71BF911E0FFF744
:101340008BFA032805D1032211460D48FFF711F946
:1013500007E0FFF781FA20B9002203210848FFF7D0
:1013600008F98AE700B4C404800600F104000020F4
:10137000454C4635322D44614C757A3A00000000E8
:10138000004006404B65793A205B25585D2D5B2572
:10139000635D000000688909001C4E0E40420F008A
:1013A00000201C0080841E0000802500999E3600CD
:1013B0000040380000093D0000803E0000004B0066
:1013C000404B4C0000204E00808D5B0000C05D0053
:1013D0000080700000127A0000007D008096980066
:1013E000001BB7000080BB00C0E8CE00647ADA00C2
:1013F0000024F4000000FA0080A81201002D310141
:1014000000366E0140787D014000000000000000C1
:10141000000100003E000800000000000001000084
:10142000A000000002000000000100003454010090
:1014300000000000000100002B700600000000000A
:101440000001000028000000000000000001000072
:101450002700010000000000000100002000000043
:101460000000000000010000500000000200000029
:10147000000100001AAC00000000000000010000A4
:1014800017940900000000000001000016980500F4
:101490000000000000010000140000000000000037
:1014A000000100001380080000000000000100009F
:1014B000A000000008000000000100001000000073
:1014C00000000000000100002800000002000000F1
:1014D00000010000400000000400000000010000C6
:1014E0006000000000000000000100005D000C0032
:1014F000000000000001000050000000000000009B
:10150000000100004E000200000000000001000089
:1015100041AC010000000000000100003C000000A0
:1015200000000000000100003A80090000000000F7
:101530000001000030000000000000000001000079
:10154000280000000000000000010000270001004A
:101550000000000000010000236006000000000001
:1015600000010000216008000000000000010000F0
:101570001E00000000000000000100001DC004006B
:101580000000000000010000500000000200000008
:101590000001000018000000000000000001000031
:1015A00014000000000000000001000060000000C6
:1015B00004000000000100000024F40030003000AE
:1015C000005A62029100910000879303D200D2007A
:1015D00000B4C4041301130100E1F50554015401E2
:1015E000000E270795019501081600000000002055
:1015F0006C06000006030000181600006C060020B0
:1016000004020000300F000001FF01FF01FF01FF95
:0816100001FF01FF0179000058
:0400000500000201F4
:00000001FF
