:020000040000FA
:100000007008002001020000150200001702000025
:10001000190200001902000019020000000000008F
:1000200000000000000000000000000019020000B5
:10003000190200000000000019020000190200006F
:100040001902000019020000190200001902000044
:100050001902000019020000190200001902000034
:100060001902000019020000190200001902000024
:100070001902000019020000190200001902000014
:100080001902000019020000190200001902000004
:1000900019020000190200001902000019020000F4
:1000A00019020000190200001902000019020000E4
:1000B00019020000190200001902000019020000D4
:1000C00019020000190200001902000019020000C4
:1000D00019020000190200001902000019020000B4
:1000E00019020000190200001902000019020000A4
:1000F0001902000019020000190200001902000094
:100100001902000019020000190200001902000083
:100110001902000019020000190200001902000073
:100120001902000019020000190200001902000063
:100130001902000019020000190200001902000053
:100140001902000019020000190200001902000043
:100150000000000000000000190200001902000069
:10016000190200001902000000000000190200003E
:100170001902000019020000190200001902000013
:100180001902000019020000190200001902000003
:1001900019020000190200001902000019020000F3
:1001A00019020000190200001902000019020000E3
:1001B00019020000190200001902000019020000D3
:1001C00019020000190200001902000019020000C3
:1001D00019020000190200001902000019020000B3
:1001E00019020000190200001902000019020000A3
:1001F0001902000019020000190200001902000093
:100200004EF68850CEF20000016841F470010160A2
:1002100000F004B8FEE7FEE7FEE70000DFF810D0CC
:1002200000F010F800480047310C0000AFF30080E8
:1002300070080020421C10F8011B0029FBD1801A15
:1002400070470000064C074D06E0E06840F00103EF
:1002500094E8070098471034AC42F6D3FFF7E2FF6A
:10026000040F0000240F000030B58C1810F8012B8B
:1002700012F00F0301D110F8013B120906D110F85A
:10028000012B03E010F8015B01F8015B5B1EF9D163
:1002900001E001F8013B521EFBD1A142E6D3002050
:1002A00030BDD0F8003412F0010F14BF0B438B4364
:1002B000C0F8003412F0020FD0F8202414BF11430C
:1002C00022EA0101C0F82014704700002DE9F04F28
:1002D000574ED6F800C0574FDFF85C810CEA070C88
:1002E000C44524D04FF0000C4FF001094FF0030A31
:1002F000C2F3411509FA0CF40C4211D0D0F8C4BF76
:100300004FEA4C040AFA04FE2BEA0E0BC0F8C4BFF5
:10031000D0F8C4BF05FA04F44BEA0404C0F8C44F93
:100320000CF1010C0CF0FF0CBCF1080FE2D3D0F87B
:1003300000C512F0010F14BF4CEA010C2CEA010CAD
:10034000C0F800C5D0F804C512F0020F14BF4CEA83
:10035000010C2CEA010CC0F804C5D0F808C512F055
:10036000040F14BF4CEA010C2CEA010CC0F808C5BC
:10037000D0F818C512F0080F14BF4CEA010C2CEA93
:10038000010CC0F818C5D6F800C00CEA070CC4452B
:1003900008D012F0100FD0F83C250CBF8A430A4356
:1003A000C0F83C25D0F80C2513F0010F14BF0A4308
:1003B0008A43C0F80C25D0F8102513F0020F14BFA3
:1003C0000A438A43C0F81025D0F8142513F0040F0F
:1003D00014BF0A438A43C0F81425D0F81C2513F033
:1003E000080F14BF0A438A43C0F81C2532683A40FC
:1003F000424511D0D0F8442513F4007F0CBF8A4346
:100400000A43C0F84425D0F8402513F4407F14BFB8
:100410000A438A43C0F84025D0F82825002B0CBF9A
:10042000114322EA0101C0F82815BDE8F08F000051
:1004300000E00F400000FF700000051030B50C46D2
:1004400005460022FFF72DFF21462846BDE8304033
:1004500008230122FFF73ABF30B50C4605460823B2
:100460000122FFF733FF21462846BDE83040012234
:10047000FFF717BF40F821207047000030B40A4D45
:100480002A680A4B9A421CBFD5F800C0002207D048
:100490005CF8224043F82240521C9B2AF8D32B6080
:1004A00043F8201030BC704708ED00E00004002045
:1004B00010B50446E2B201210148FFF7DBFF10BD91
:1004C0000030064010B50446E2B202210148FFF7B1
:1004D000D1FF10BD0010064010B504462046FFF7BE
:1004E000F1FF0120FFF7E4FF062000F057FB052095
:1004F000FFF7DEFF062000F051FB0120FFF7D8FFD9
:10050000282000F04BFB4FF4C86000F047FB10BD03
:1005100010B504462046FFF7D5FF0020FFF7C8FFBF
:10052000062000F03BFB0420FFF7C2FF062000F08E
:1005300035FB0020FFF7BCFF282000F02FFB10BD8B
:1005400010B54020FFF7E4FF0E20FFF7C5FF1B208A
:10055000FFF7C2FF1120FFF7BFFF1120FFF7BCFF1D
:100560001120FFF7B9FF1120FFF7B6FF1120FFF7A9
:10057000B3FF1F20FFF7B0FF4820FFF7C9FF0E2091
:10058000FFF7AAFF1B20FFF7A7FF1120FFF7A4FF2B
:100590001120FFF7A1FF1120FFF79EFF1120FFF7A9
:1005A0009BFF1F20FFF798FF1F20FFF795FF5020AC
:1005B000FFF7AEFF0E20FFF78FFF1B20FFF78CFF2A
:1005C0001120FFF789FF1120FFF786FF1120FFF7A9
:1005D00083FF1F20FFF780FF1F20FFF77DFF1F20F5
:1005E000FFF77AFF5820FFF793FF0E20FFF774FF05
:1005F0001B20FFF771FF1120FFF76EFF1120FFF79F
:100600006BFF1F20FFF768FF1F20FFF765FF1F200C
:10061000FFF762FF1F20FFF75FFF6020FFF778FF03
:100620000E20FFF759FF1B20FFF756FF1120FFF7A1
:1006300053FF1F20FFF750FF1F20FFF74DFF1F2024
:10064000FFF74AFF1F20FFF747FF1F20FFF744FF78
:100650006820FFF75DFF0E20FFF73EFF1B20FFF72E
:100660003BFF1F20FFF738FF1F20FFF735FF1F203C
:10067000FFF732FF1F20FFF72FFF1F20FFF72CFF90
:100680001F20FFF729FF7020FFF742FF0E20FFF722
:1006900023FF1F20FFF720FF1F20FFF71DFF1F2054
:1006A000FFF71AFF1F20FFF717FF1F20FFF714FFA8
:1006B0001F20FFF711FF1F20FFF70EFF7820FFF725
:1006C00027FF0420FFF708FF0E20FFF705FF0E208D
:1006D000FFF702FF0E20FFF7FFFE0E20FFF7FCFEE4
:1006E0001F20FFF7F9FE0020FFF7F6FE0420FFF7BA
:1006F000F3FE10BD10B50020FFF7DAFE102000F069
:100700003BFA3820FFF704FF0C20FFF701FF012020
:10071000FFF7FEFE0620FFF7FBFE4FF4C86000F077
:100720003DFA10BD10B51E4800F0CCF900BF1C48C2
:1007300000F0DCF90028FAD01948801E00F0C2F958
:1007400000BF1748801E00F0D1F90028F9D01448E6
:10075000401E00F0B7F900BF1148401E00F0C6F976
:100760000028F9D007210F48FFF776FEFF210E4839
:10077000FFF772FE0F210D48FFF760FE0A230122EA
:100780000F210A48FFF7A2FDF0210648FFF756FEA9
:100790000A230122F0210348FFF798FD10BD000055
:1007A0000B0800F000300640001006400020064014
:1007B00010B500200749086000F0AEF9064800F0C7
:1007C000D5F9064800F0C6F900F0B4F900F0ABF92D
:1007D00010BD000000000020ADD40100450B00005A
:1007E0002DE9F003AD4D02462868AD4B1840A0F14D
:1007F0008053B3F5A02358D002F03809DFF8A48263
:10080000C2F38414B9F1100F24D0B9F1300F04BF32
:1008100047F230504FF400130CD03820904304BFFF
:100820004FF40040C30105D012F0380F1CBF002068
:10083000034613D09C4F12F4605F4FF0000618BFC0
:1008400000222CD057F8324044457DD307EBC2023A
:100850005268DFE0002340461524EBE7A4F10900CD
:10086000122822D29148D5F87CC04FF04C7350F832
:1008700024002CF01C0C072CA8BF4CF0100CC5F861
:100880007CC02E6D4FF4002C16F4807FD2D1BCF1C9
:10089000010C0AD02E6D16F4807FF8D0CAE712F052
:1008A000380F18BFB9F1100F03D0BDE8F0030020D6
:1008B0007047C2F30268DFF8F8C1002257F832909F
:1008C000E14503D307EBC202526803E0521C062A3B
:1008D000F4D33246C5F8C020D5F8B020DFF8D4C133
:1008E00002EA0C0242F00042C5F8B020DFF8C8C1AD
:1008F000A4F109024C1E5CF828C0A444BCFBF1FC26
:10090000D5F8B0101943C5F8B01008EBC80101EBD9
:1009100041046A4902EB420201EBC40101EB82048B
:100920006468C5F86441D5F864416FF0FF0808EBCE
:100930000C2C44EA0C0CC5F864C151F82210D5F80F
:10094000602102F4000200E05FE01143C5F860118D
:10095000D5F86011D5F86021C1F38921C2F30904EB
:10096000D5F86421C2F3042202F1010CD5F8642108
:1009700002F01F02521CB0FBF2F04A09C2F100085B
:100980004443424301EB481104EB5212484302EB4B
:100990009020B0FBFCF041080846002257F832C016
:1009A000844503D307EBC200466802E0521C062AC6
:1009B000F4D3C5F8C060D5F8600110F4000F1DBF76
:1009C000D5F8B00040F08040C5F8B000D5F860011F
:1009D00004BF40F40000C5F860014FF40040D5F8B2
:1009E000682112F0010F02D1401E0028F7DC002818
:1009F00008BF002148D0D5F8B000184340F00100EE
:100A000040F01040C5F8B0003EE0521C062AFFF44A
:100A100019AF3246C5F8C020D5F8602122F4000293
:100A2000C5F86021D5F8B020DFF894C002EA0C02C6
:100A300042F00042C5F8B020002908BF4FF0000C7A
:100A40000AD0B0FBF1FCBCF1000F18BFACF1010CF7
:100A50000CF10101B0FBF1F10846002257F83240D9
:100A6000844203D307EBC200466802E0521C062A08
:100A7000F4D3C5F8C060D5F8B00043EA8C22104327
:100A800040F00040C5F8B000D5F8B00020F4700088
:100A9000C5F8B000BDE8F0030846704700E00F401D
:100AA0000000FF700024F400D40E0000B80C000019
:100AB00040787D0100FC0FE0B00C0000240D000028
:100AC000FF0300EFC0F307230749C0B2194401F048
:100AD0007043C1F3130143EA411141EA800040F041
:100AE000007001220260704700E60F40C0F3072249
:100AF0000849C0B2114401F07042C1F3130142EA47
:100B0000411141EA800040F000700068002818BFE1
:100B10000120704700EA0F404FF0E020016921F00A
:100B20000101016170474FF0E020016941F00501CA
:100B3000016170474FF0E020016941F0020101615D
:100B40007047000002480068401C01490860704777
:100B50000000002010B501460F20FFF78FFC4FF07A
:100B6000E020016941F00201016110BD4FF0E02178
:100B7000401E4861704700000021074A116008E0EC
:100B800040F271214143044A1268B2EBC11F00D9FF
:100B900000E0F5E700BF7047000000200021074A91
:100BA000116007E000EB8001044A1268B2EB011FFC
:100BB00000D900E0F6E700BF704700000000002009
:100BC0000FB4084610B5064A02A900F01AF8044608
:100BD00002A9002000F026F8204610BC5DF814FBA6
:100BE000250C000002E008C8121F08C1002AFAD133
:100BF00070477047002001E001C1121F002AFBD19D
:100C000070472DE9F04116460F460446002503E0E3
:100C10003946B047641C6D1C20780028F8D128465E
:100C2000BDE8F0810A68531C0B601070704700002B
:100C30001FB518491848FFF7D3FD18490860FFF79A
:100C4000B7FDFFF76FFDFFF755FDFFF779FC14A126
:100C50006846FFF7B5FF8020FFF75AFC002404E048
:100C60001DF80400FFF738FC641C6846FFF7E2FA41
:100C7000A042F5D80020FFF72FFC0220FFF72CFC44
:100C80000420FFF729FC0620FFF726FC002004B013
:100C900010BD000000B4C404800600F1080000206C
:100CA000454C4635322D44614C757A3A00000000BF
:100CB00000688909001C4E0E40420F0000201C00F5
:100CC00080841E0000802500999E36000040380078
:100CD00000093D0000803E0000004B00404B4C00EE
:100CE00000204E00808D5B0000C05D000080700021
:100CF00000127A0000007D0080969800001BB7006B
:100D00000080BB00C0E8CE00647ADA000024F40062
:100D10000000FA0080A81201002D310100366E019A
:100D200040787D014000000000000000000100004C
:100D30003E0008000000000000010000A0000000CC
:100D40000200000000010000345401000000000017
:100D5000000100002B7006000000000000010000F0
:100D60002800000000000000000100002700010032
:100D70000000000000010000200000000000000052
:100D8000000100005000000002000000000100000F
:100D90001AAC0000000000000001000017940900D8
:100DA000000000000001000016980500000000008F
:100DB000000100001400000000000000000100001D
:100DC000138008000000000000010000A0000000E7
:100DD00008000000000100001000000000000000FA
:100DE00000010000280000000200000000010000D7
:100DF000400000000400000000010000600000004E
:100E000000000000000100005D000C000000000078
:100E10000001000050000000000000000001000080
:100E20004E000200000000000001000041AC010083
:100E300000000000000100003C0000000000000075
:100E4000000100003A8009000000000000010000DD
:100E50003000000000000000000100002800000039
:100E60000000000000010000270001000000000059
:100E700000010000236006000000000000010000E7
:100E80002160080000000000000100001E000000BA
:100E900000000000000100001DC004000000000070
:100EA00000010000500000000200000000010000EE
:100EB0001800000000000000000100001400000005
:100EC00000000000000100006000000004000000BD
:100ED000000100000024F40030003000005A6202DB
:100EE0009100910000879303D200D20000B4C404A3
:100EF0001301130100E1F50554015401000E270709
:100F000095019501240F0000000000206C060000F0
:100F100068020000340F00006C060020040200008C
:100F2000F40B000001FF01FF01FF01FF01FF01FFC2
:040F30000179000043
:0400000500000201F4
:00000001FF
